:020000040000FA
:100000000C945E000C9486000C9486000C94860080
:100010000C9486000C9486000C9486000C94860048
:100020000C9486000C9486000C9486000C94860038
:100030000C9486000C9486000C9486000C94860028
:100040000C9467060C9486000C9436060C941006EB
:100050000C9486000C9486000C9486000C94860008
:100060000C94B1060C9486000000000024002700C8
:100070002A0000000000250028002B0004040404CE
:100080000404040402020202020203030303030342
:10009000010204081020408001020408102001021F
:1000A00004081020000000080002010000030407FB
:1000B0000000000000000000D007C10911241FBE8D
:1000C000CFEFD8E0DEBFCDBF24E0A8EBB1E001C0A8
:1000D0001D92A43CB207E1F711E0A0E0B1E0ECE131
:1000E000F8E102C005900D92A83BB107D9F710E0E6
:1000F000CDE5D0E004C02197FE010E94000ACC3576
:10010000D107C9F70E941F080C94010C0C94000041
:10011000E0917502F0917602309729F010927C02FE
:1001200010927B0209940895CF93DF93AC01E09184
:100130007302F09174023097F1F090917E028091F9
:100140007D029817C0F090E0292F30E0261737077E
:1001500054F4D901A854BE4F240F351FE90128815A
:100160002C939F5FF1CF10927E0260937D02CB01B2
:10017000DF91CF910994DF91CF910895AF92BF9213
:10018000CF92DF92EF92FF920F931F93CF93DF9363
:100190006C017B018B01040F151FEB015E01AE1892
:1001A000BF08C017D10759F06991D601ED91FC91B4
:1001B0000190F081E02DC6010995892B79F7C501E1
:1001C000DF91CF911F910F91FF90EF90DF90CF9033
:1001D000BF90AF900895FC01538D448D252F30E0E2
:1001E000842F90E0821B930B541718F081509F4F7F
:1001F000089501970895FC01918D828D981759F00B
:10020000A28DAE0FBF2FB11D5D968C91928D9F5F19
:10021000928F90E008958FEF9FEF0895FC01918DEC
:10022000828D981731F0828DE80FF11D858D90E059
:1002300008958FEF9FEF0895FC01918D828D981B9B
:10024000892F90E008958FE792E00E941C0121E041
:10025000892B09F420E0822F089580E090E0892B1B
:1002600029F00E94230181110C9400000895FC01E3
:10027000A48DA80FB92FB11DA35EBE4F9C91848D94
:100280008F5F848FA689B7899C93A089B1898C914F
:10029000837080648C93938D848D981306C002883C
:1002A000F389E02D80818F7D808308950F931F93C4
:1002B000CF93DF93EC0181E0888F9B8D8C8D981319
:1002C00018C0E889F989808185FF13C09FB7F89429
:1002D000EE89FF896083E889F98980818370806471
:1002E00080839FBF81E090E0DF91CF911F910F91BC
:1002F0000895062F1B8D1F5F8C8D81130CC00FB6C8
:1003000007FCFACFE889F989808185FFF5CFCE0116
:100310000E943701F1CFEB8DEC0FFD2FF11DE35E55
:10032000FE4F00839FB7F8941B8FEA89FB89808179
:100330008062D6CFCF93DF93EC01888D8823B9F00C
:10034000AA89BB89E889F9898C9185FD03C08081E0
:1003500086FD0DC00FB607FCF7CF8C9185FFF2CF5D
:10036000808185FFEDCFCE010E943701E9CFDF917B
:10037000CF91089590E0FC01EC55FF4F2491FC01D2
:10038000E057FF4F3491FC01E458FF4FE491EE2316
:10039000C9F0222339F0233001F1A8F4213019F1FA
:1003A000223029F1F0E0EE0FFF1FEE58FF4FA5912C
:1003B000B4918FB7F894EC91611126C030953E232B
:1003C0003C938FBF08952730A9F02830C9F024301E
:1003D00049F7809180008F7D03C0809180008F77E6
:1003E00080938000DFCF84B58F7784BDDBCF84B569
:1003F0008F7DFBCF8091B0008F778093B000D2CFFC
:100400008091B0008F7DF9CF3E2BDACFCF93DF9371
:1004100090E0FC01E057FF4F249184589F4FFC016E
:1004200084918823D1F090E0880F991FFC01E8594E
:10043000FF4FA591B491FC01EE58FF4FC591D491A7
:1004400061110EC09FB7F8948C91E22FE0958E2336
:100450008C932881E223E8839FBFDF91CF91089599
:100460008FB7F894EC91E22BEC938FBFF6CF3FB7A8
:10047000F89480916F0290917002A0917102B091F6
:10048000720226B5A89B05C02F3F19F00196A11D49
:10049000B11D3FBFBA2FA92F982F8827BC01CD01CE
:1004A000620F711D811D911D42E0660F771F881F2D
:1004B000991F4A95D1F708958F929F92AF92BF925C
:1004C000CF92DF92EF92FF924B015C010E943702C4
:1004D0006B017C010E9437026C197D098E099F090E
:1004E000683E734081059105A8F321E0821A9108C6
:1004F000A108B10888EEC80E83E0D81EE11CF11CEB
:1005000081149104A104B10429F7FF90EF90DF90CA
:10051000CF90BF90AF909F908F90089508952091B5
:10052000F901260F3327331F21323105ECF42091D6
:100530004202FC0190E080E0243069F082E00895FE
:10054000A091F9012191AC0147525E4FA40FB52F44
:10055000B11D2C930196861798F38091F901680FCD
:100560006093F90180E0089581E0089510924202BD
:1005700081E08093410210921C0261E082E10E94BE
:10058000BA0161E083E10E94BA01E9EBF0E0808109
:100590008E7F808380818D7F808388E48093B80004
:1005A00085E48093BC000895CF93DF9391E090930E
:1005B000D8018823B9F0C091B800D091BA008091D9
:1005C000BC008A7B8093BC0060E082E10E94BA019B
:1005D00060E083E10E94BA010E94B602D093BA00A3
:1005E000C093B800DF91CF9108950895E0917E0205
:1005F00080917D02E81730F4F0E0E854FE4F8081EE
:1006000090E008958FEF9FEF089590917E02809182
:100610007D022FEF3FEF981748F4E92FF0E0E85400
:10062000FE4F208130E09F5F90937E02C9010895C4
:1006300080917D0290917E02891B990B0895CF9243
:10064000DF92EF92FF920F931F93CF93DF937C0182
:10065000CB018A0120914802222389F0EB016B0132
:10066000C40ED51ECC15DD0569F06991D701ED9159
:10067000FC910190F081E02DC7010995F3CF642F23
:100680000E948F02C801DF91CF911F910F91FF90BF
:10069000EF90DF90CF900895CF93DF931F92CDB767
:1006A000DEB76983209148022223F9F020917B0272
:1006B000203258F021E030E0FC013383228390E0C7
:1006C00080E00F90DF91CF91089580917C02E82F18
:1006D000F0E0E75BFD4F998190838F5F80937C0210
:1006E00080937B0281E090E0ECCF61E0CE01019647
:1006F0000E948F02F7CFCF92DF92EF92FF920F937B
:100700001F93CF93DF93FC01C48121E02093480223
:10071000C093690210927C0210927B028385682B41
:100720008CE994E00E944C03D0917B02D13208F016
:1007300092C00E9437026B017C01809142028111BC
:1007400065C082E08093420281E0809341028FEF96
:100750008093400210923F02D0933E02A9E4B2E09F
:10076000EEE1F2E080E0D81385C010921D02809186
:100770001D02CC0FC82BC0931D0280911C0281303A
:1007800009F07CC010921C020E9437026B017C01B0
:1007900080911D028093BB0080914402909145029C
:1007A000A0914602B0914702892B8A2B8B2B99F09E
:1007B0000E943702009144021091450220914602A6
:1007C000309147026C197D098E099F09061717079A
:1007D00028073907E0F18091BC0083FDD9CF85EC73
:1007E0008093BC000E9437026B017C018091420221
:1007F000823009F445C0809140028F3F61F18091C1
:100800004002803241F18091400225C08091440233
:1008100090914502A0914602B0914702892B8A2B04
:100820008B2B09F48ACF0E94370200914402109169
:10083000450220914602309147026C197D098E09CC
:100840009F09061717072807390708F076CF809108
:1008500043020E94D40210927C0210927B021092FA
:100860004802DF91CF911F910F91FF90EF90DF90A1
:10087000CF9008959D9191938F5F75CF85EEB0CF06
:100880008091440290914502A0914602B0914702A6
:10089000892B8A2B8B2B09F4A9CF0E943702009158
:1008A00044021091450220914602309147026C1992
:1008B0007D098E099F09061717072807390708F0D1
:1008C00095CFC5CF90E080E008950F931F93CF930D
:1008D0008C01C62F0E947B036C2F6460C8010E94AC
:1008E0007B036C2F6B7FC8010E947B0383EC90E03D
:1008F0000197F1F7CF911F910F9108950F931F93D7
:10090000CF93DF938C01D62FC42F607F642B0E947E
:10091000650480E1D89FB00111246C2BC801DF91E0
:10092000CF911F910F910C94650441E00E947E04C9
:1009300081E090E008950F931F93CF93DF938B0195
:1009400098E0899FB0011124606440E084EB94E05A
:100950000E947E04E801085F1F4F699184EB94E0D8
:100960000E949504C017D107C1F7DF91CF911F9165
:100970000F910895FB0101900020E9F73197AF0135
:10098000461B570BDC01ED91FC910280F381E02DB9
:100990000994FC0180819181009711F00C94A20AC6
:1009A00008950F931F93CF93DF93EC018881998172
:1009B000009759F02A813B812617370730F081E0F4
:1009C000DF91CF911F910F9108958B016F5F7F4F42
:1009D0000E942B0B009759F0998388831B830A830D
:1009E0002C813D81232B59F7FC011082E8CF80E058
:1009F000E7CFCF93DF93EC01198218821B821A8212
:100A00001D821C8270E060E00E94D104288139813F
:100A100081110FC02115310519F0C9010E94A20AE8
:100A2000198218821D821C821B821A82DF91CF914B
:100A300008951D821C8260E671E0C901DF91CF91AB
:100A40000C94FA0B0F931F93CF93DF9300D0CDB785
:100A5000DEB780917D0290917E02891B990B18165A
:100A600019066CF58CE994E00E940503182F682F95
:100A70008FE792E00E94560119831A820091B20416
:100A80001091B3040F5F1F4FB8018EEA94E00E94EB
:100A9000D1048823F1F22091AE043091AF0480910B
:100AA000B2049091B304BE016F5F7F4F820F931F1A
:100AB0000E94FA0B1093B3040093B204CACF6EE500
:100AC00071E08FE792E00F900F90DF91CF911F912F
:100AD0000F910C94BA0485ED8093BC008091440280
:100AE00090914502A0914602B09147020796A11D40
:100AF000B11D23E0B695A795979587952A95D1F7CF
:100B00002091BC0024FD03C0109242020895409140
:100B10004402509145026091460270914702452B74
:100B2000462B472B69F30097A105B10541F025E35A
:100B30002A95F1F700000197A109B109E1CF809151
:100B400043020C94D4020F931F93CF93DF9300D0F2
:100B500000D000D0CDB7DEB7CE0101960E94F904D7
:100B60008091B2049091B304892B19F10091AE04E5
:100B70001091AF0461E671E0C8010E94F10B6CE6D0
:100B800071E0892B91F06CE771E0C8010E94F10BD4
:100B90006DE871E0892B49F06FE871E0C8010E94AF
:100BA000F10B892B31F467E971E08CE994E00E9444
:100BB000BA0470E060E08EEA94E00E94D1042091D3
:100BC000AE043091AF04811121C02115310519F017
:100BD000C9010E94A20A1092AF041092AE041092B2
:100BE000B3041092B2041092B1041092B004CE017A
:100BF00001960E94C90426960FB6F894DEBF0FBE78
:100C0000CDBFDF91CF911F910F9108951092B30442
:100C10001092B20460E671E0C9010E94FA0BE7CFBE
:100C20001F920F920FB60F9211242F933F934F9361
:100C30005F936F937F938F939F93AF93BF93EF9344
:100C4000FF938FE792E00E943701FF91EF91BF91F0
:100C5000AF919F918F917F916F915F914F913F9154
:100C60002F910F900FBE0F901F9018951F920F920B
:100C70000FB60F9211242F938F939F93EF93FF93AF
:100C8000E0918F02F09190028081E0919502F091C5
:100C9000960282FD1AC09081809198028F5F209108
:100CA0009902821741F0E0919802F0E0E158FD4F7F
:100CB000958F80939802FF91EF919F918F912F9143
:100CC0000F900FBE0F901F9018958081F4CF1F9248
:100CD0000F920FB60F9211242F933F938F939F93F0
:100CE000AF93BF9380916B0290916C02A0916D02C3
:100CF000B0916E0230916A0223E0230F2D3758F530
:100D00000196A11DB11D20936A0280936B029093FE
:100D10006C02A0936D02B0936E0280916F0290916D
:100D20007002A0917102B09172020196A11DB11DD5
:100D300080936F0290937002A0937102B09372023D
:100D4000BF91AF919F918F913F912F910F900FBEC7
:100D50000F901F90189526E8230F0296A11DB11D34
:100D6000D2CF1F920F920FB60F9211242F933F9361
:100D70004F935F936F937F938F939F93AF93BF93A3
:100D8000EF93FF938091B900887F803609F44AC0C1
:100D9000F0F5883209F4A7C018F5803109F49BC03A
:100DA000B8F4882309F4F9C0883009F494C0FF919D
:100DB000EF91BF91AF919F918F917F916F915F91D3
:100DC0004F913F912F910F900FBE0F901F9018954C
:100DD000883109F488C0803251F78093400214C0F2
:100DE000803409F49DC040F48033B9F38833F9F6B8
:100DF0008093400285ECB0C0803509F485C0883509
:100E000009F496C0883499F60E946B05D0CF8839D2
:100E100009F48CC038F5883729F050F4883611F081
:100E2000803729F683E08093420210921B0257C05C
:100E3000883809F47BC0803919F0803809F0B7CFC1
:100E400080911B02803208F071C0E0911B0281E0AA
:100E50008E0F80931B028091BB00F0E0E550FE4FA7
:100E600080833DC0803B39F0E0F4803A09F479C0DA
:100E7000883A09F09CCF84E0809342021092FA01F4
:100E80001092F901E0917902F0917A02099580912E
:100E9000F90181110FC081E08093F9011092D9010D
:100EA00009C0803C09F4A6CF883C09F4A3CF883B55
:100EB00009F07DCFE091FA0181E08E0F8093FA0175
:100EC000F0E0E752FE4F80818093BB009091FA01E1
:100ED0008091F90129C080911D028093BB0085ECAF
:100EE0008093BC0064CF90913F0280913E0298179E
:100EF00058F5E0913F0281E08E0F80933F02F0E0D1
:100F0000E25EFD4F8081E9CFE0913F0281E08E0FEC
:100F100080933F028091BB00F0E0E25EFD4F808352
:100F200090913F0280913E029817C8F285E8D8CF91
:100F3000E0913F0281E08E0F80933F028091BB00E1
:100F4000F0E0E25EFD4F80838091410281115CCF31
:100F500081E080931C0284EA8093BC0010924202DC
:100F600026CF85EC8093BC001092420280911B0238
:100F7000803230F4E0911B02F0E0E550FE4F108229
:100F800060911B0270E0E0917702F09178028BEFA4
:100F900091E0099510921B020ACF1092400234CFC3
:100FA000EFE7F2E01382128288EE93E0A0E0B0E077
:100FB00084839583A683B78322E331E03183208342
:100FC00025EC30E03587248724EC30E0378726870E
:100FD00020EC30E0318B208B21EC30E0338B228B06
:100FE00022EC30E0358B248B26EC30E0378B268BDF
:100FF000118E128E138E148EECE9F4E0138212829D
:1010000084839583A683B78384E491E0918380836E
:10101000E4EBF4E01382128286E591E09183808311
:1010200087E2848380E1818782E0828713868EEA6B
:1010300094E00E94F90488EA94E00C94F904CF93B8
:10104000DF93CDB7DEB7A8970FB6F894DEBF0FBE1B
:10105000CDBF789484B5826084BD84B5816084BD41
:1010600085B5826085BD85B5816085BD80916E0046
:10107000816080936E001092810080918100826077
:1010800080938100809181008160809381008091B4
:1010900080008160809380008091B10084608093A3
:1010A000B1008091B00081608093B00080917A009F
:1010B000846080937A0080917A00826080937A00C5
:1010C00080917A00816080937A0080917A008068B4
:1010D00080937A001092C100E0918F02F09190020B
:1010E00082E08083E0918B02F0918C021082E0918B
:1010F0008D02F0918E028FEC808310929702E09126
:101100009302F091940286E08083E0919102F09145
:101110009202808180618083E0919102F09192023D
:10112000808188608083E0919102F09192028081B9
:1011300080688083E0919102F091920280818F7D9E
:1011400080836DE971E08FE792E00E94BA046EE55A
:1011500071E08FE792E00E94BA040E94B60280E13B
:101160008093BA0082E295E09093740280937302B8
:1011700083EA95E0909376028093750261E084E0C3
:101180000E94060261E083E00E94060261E085E0C1
:101190000E94060260E086E00E94060260E08FE0A6
:1011A0000E94060288E0E6E0F1E0DE0191960190FF
:1011B0000D928A95E1F788E0EEE0F1E0DE015996C4
:1011C00001900D928A95E1F788E0E6E1F1E0DE0119
:1011D000519601900D928A95E1F788E0EEE1F1E0F9
:1011E000DE01199601900D928A95E1F788E0E6E21A
:1011F000F1E0DE01119601900D928A95E1F71092CF
:101200007E0210927D0210927C0210927B020E945C
:10121000B60288E890E090937A028093790284E99C
:1012200090E090937802809377021092B9048091B5
:10123000BE04823018F098E09093B9048093BC0407
:1012400062E370E080E090E00E945C026091BF0485
:1012500084EB94E00E947B0368EE73E080E090E012
:101260000E945C0260E384EB94E00E9465040BE45E
:1012700016E4C8010197F1F760E384EB94E00E9463
:101280006504C8010197F1F760E384EB94E00E94E4
:10129000650483E592E00197F1F760E284EB94E066
:1012A0000E9465046091B904606240E084EB94E0C0
:1012B0000E947E0484E08093BA0440E06CE084EBFA
:1012C00094E00E947E0440E061E084EB94E00E94A0
:1012D0007E040BE31FE1C8010197F1F782E08093E0
:1012E000BB0440E066E084EB94E00E947E0440E0B2
:1012F00062E084EB94E00E947E04C8010197F1F75C
:1013000088E08093BF0460E084EB94E00E947B035C
:10131000BE016F5D7F4F80E00E949B04BE01675E4F
:101320007F4F81E00E949B04BE016F5E7F4F82E091
:101330000E949B04BE01675F7F4F83E00E949B0475
:10134000BE016F5F7F4F84E00E949B0440E062E03B
:1013500084EB94E00E947E04C8010197F1F76DEAE6
:1013600071E084EB94E00E94BA0400E010E0011503
:101370001105E9F30E9423018823C9F30E940000AC
:10138000F6CF88EA94E00E94C9048EEA94E00C94B7
:10139000C9042F923F924F925F926F927F928F92E9
:1013A0009F92AF92BF92CF92DF92EF92FF920F93F4
:1013B0001F93CF93DF93CDB7DEB7CA1BDB0B0FB6FE
:1013C000F894DEBF0FBECDBF09942A8839884888BB
:1013D0005F846E847D848C849B84AA84B984C88451
:1013E000DF80EE80FD800C811B81AA81B981CE0F48
:1013F000D11D0FB6F894DEBF0FBECDBFED0108952D
:10140000EE0FFF1F0590F491E02D09940F931F93A9
:10141000CF93DF938230910510F482E090E0E09169
:10142000C204F091C30430E020E0B0E0A0E03097C7
:1014300099F42115310509F44AC0281B390B2430D1
:101440003105D8F58A819B816115710589F1FB0110
:1014500093838283FE0111C04081518102811381F7
:1014600048175907E0F04817590799F4109761F0A9
:1014700012960C93129713961C933296CF01DF911C
:10148000CF911F910F9108950093C2041093C3044C
:10149000F4CF2115310551F04217530738F0A90157
:1014A000DB019A01BD01DF01F801C1CFEF01F9CFE6
:1014B0009093C3048093C204CDCFFE01E20FF31FCB
:1014C000819391932250310939832883D7CF20917A
:1014D000C0043091C104232B41F4209102013091CA
:1014E00003013093C1042093C00420910001309186
:1014F00001012115310541F42DB73EB7409104019A
:1015000050910501241B350BE091C004F091C104FA
:10151000E217F307A0F42E1B3F0B2817390778F0CA
:10152000AC014E5F5F4F2417350748F04E0F5F1F29
:101530005093C1044093C004819391939FCFF0E0F6
:10154000E0E09CCFCF93DF930097E9F0FC01329766
:1015500013821282A091C204B091C304ED0130E065
:1015600020E01097A1F420813181820F931F2091F8
:10157000C0043091C1042817390709F061C0F09305
:10158000C104E093C004DF91CF910895EA01CE1722
:10159000DF07E8F54A815B819E0141155105B1F7EE
:1015A000E901FB83EA8349915991C40FD51FEC17D8
:1015B000FD0761F4808191810296840F951FE901F6
:1015C00099838883828193819B838A83F0E0E0E022
:1015D00012968D919C9113970097B9F52D913C919E
:1015E0001197CD010296820F931F2091C004309174
:1015F000C1042817390739F6309751F51092C30402
:101600001092C204B093C104A093C004BCCFD38392
:10161000C28340815181840F951FC817D90761F497
:101620004E5F5F4F88819981480F591F51834083D6
:101630008A819B81938382832115310509F0B0CF84
:10164000F093C304E093C2049ECFFD01DC01C0CF40
:1016500013821282D7CFB0E0A0E0E1E3FBE00C946C
:10166000CB098C01009751F4CB010E94060A8C0132
:10167000C801CDB7DEB7E0E10C94E709FC01E60F45
:10168000F71F9C0122503109E217F30708F49DC0AF
:10169000D901CD91DC911197C617D70798F0C530C5
:1016A000D10530F3CE0104978617970708F3C61BC0
:1016B000D70B2297C193D1936D937C93CF010E9456
:1016C000A20AD6CF5B01AC1ABD0A4C018C0E9D1E3E
:1016D000A091C204B091C304512C412CF12CE12CF7
:1016E000109731F58091C0049091C1048815990537
:1016F00009F05CC04616570608F058C080910001FA
:1017000090910101009741F48DB79EB7409104017B
:1017100050910501841B950BE817F90708F055C097
:10172000F093C104E093C004F90171836083A0CFFA
:101730008D919C91119712966C90129713967C90B4
:101740001397A815B90559F56C0142E0C40ED11CD8
:10175000CA14DB0420F1AC014A195B09DA011296C4
:10176000159780F06282738251834083D9016D9313
:101770007C93E114F10471F0D7011396FC93EE937E
:10178000129776CF22968C0F9D1FF901918380834B
:10179000F301EFCFF093C304E093C20469CF48167E
:1017A000590608F42C017D01D3019ACFCB010E9488
:1017B000060A7C01009749F0AE01B8010E94E80BCF
:1017C000C8010E94A20A870153CF10E000E050CF69
:1017D000FB01DC0102C001900D9241505040D8F74E
:1017E0000895FB01DC018D91019080190110D9F35E
:1017F000990B0895FB01DC0101900D920020E1F7A7
:10180000089510E0CDE5D0E004C0FE010E94000A7A
:101810002196CE35D107C9F7F894FFCF0000C40454
:101820008000040E0E1F1F1F1F0E040A0A0A0E1F3F
:101830001F0E1C141C0000000000111111131518BC
:1018400010101804180418000000000000005601D1
:10185000BE00EB009A011C01FB000E01000000001D
:101860004C031F036204F50218030503F60200008F
:1018700000009504BE0062048E020D0A00436F6EE4
:101880006E6563742E2E2E00436F6E6E656374203A
:101890005375636365737300474554205450482063
:1018A0004461746153697A6500350047455420549A
:1018B00050480032352E30300048656C6C6F2C205B
:1018C00041726475696E6F21004C6F6164696E6767
:0418D0002E2E2E008A
:107E0000112484B714BE81FFF0D085E080938100F7
:107E100082E08093C00088E18093C10086E0809377
:107E2000C20080E18093C4008EE0C9D0259A86E02C
:107E300020E33CEF91E0309385002093840096BBD3
:107E4000B09BFECF1D9AA8958150A9F7CC24DD24C4
:107E500088248394B5E0AB2EA1E19A2EF3E0BF2EE7
:107E6000A2D0813461F49FD0082FAFD0023811F036
:107E7000013811F484E001C083E08DD089C08234E0
:107E800011F484E103C0853419F485E0A6D080C0E4
:107E9000853579F488D0E82EFF2485D0082F10E0AE
:107EA000102F00270E291F29000F111F8ED06801E7
:107EB0006FC0863521F484E090D080E0DECF843638
:107EC00009F040C070D06FD0082F6DD080E0C81688
:107ED00080E7D80618F4F601B7BEE895C0E0D1E017
:107EE00062D089930C17E1F7F0E0CF16F0E7DF06D8
:107EF00018F0F601B7BEE89568D007B600FCFDCFD4
:107F0000A601A0E0B1E02C9130E011968C91119780
:107F100090E0982F8827822B932B1296FA010C0160
:107F200087BEE89511244E5F5F4FF1E0A038BF0790
:107F300051F7F601A7BEE89507B600FCFDCF97BE46
:107F4000E89526C08437B1F42ED02DD0F82E2BD052
:107F50003CD0F601EF2C8F010F5F1F4F84911BD097
:107F6000EA94F801C1F70894C11CD11CFA94CF0C13
:107F7000D11C0EC0853739F428D08EE10CD085E9AC
:107F80000AD08FE07ACF813511F488E018D01DD067
:107F900080E101D065CF982F8091C00085FFFCCF94
:107FA0009093C60008958091C00087FFFCCF809118
:107FB000C00084FD01C0A8958091C6000895E0E648
:107FC000F0E098E1908380830895EDDF803219F02E
:107FD00088E0F5DFFFCF84E1DECF1F93182FE3DFCA
:107FE0001150E9F7F2DF1F91089580E0E8DFEE27F6
:047FF000FF270994CA
:027FFE00040479
:00000001FF
