:020000040000FA
:100000000C9421010C9449010C9449010C94490170
:100010000C9449010C9449010C9449010C94490138
:100020000C9449010C9449010C9449010C94490128
:100030000C9449010C9449010C9449010C94490118
:100040000C9441110C9449010C9410110C94EA1079
:100050000C9449010C9449010C9449010C944901F8
:100060000C948B110C94490107634236B79BD8A7B7
:100070001A39685618AEBAAB558C1D3CB7CC5763CD
:10008000BD6DEDFD753EF6177231BF000000803F7B
:1000900008000000BE922449123EABAAAA2ABECD97
:1000A000CCCC4C3E00000080BEABAAAAAA3E000009
:1000B0000000BF000000803F000000000008417801
:1000C000D3BB4387D1133D190E3CC3BD4282AD2B38
:1000D0003E68EC8276BED98FE1A93E4C80EFFFBE30
:1000E00001C4FF7F3F000000000000407A10F35A77
:1000F00000A0724E18090010A5D4E80000E8764868
:10010000170000E40B54020000CA9A3B000000E113
:10011000F505000080969800000040420F000000A6
:10012000A08601000000102700000000E803000086
:1001300000006400000000000A0000000000010050
:10014000000000002C76D888DC674F0823DFC1DF71
:10015000AE59E1B1B796E5E3E453C63AE651997674
:1001600096E8E6C28426EB898C9B62ED407C6FFCAE
:10017000EFBC9C9F40F2BAA56FA5F490055A2AF7F0
:100180005C936B6CF9676DC11BFCE0E40D47FEF5F9
:1001900020E6B500D0ED902E030094357705008061
:1001A000841E080000204E0A000000C80C333333C0
:1001B000330F986E12831141EF8D2114893BE65560
:1001C00016CFFEE6DB18D1844B381BF77C1D901D43
:1001D000A4BBE424203284725E228100C9F124ECA5
:1001E000A1E53D2700000000240027002A000000B0
:1001F0000000250028002B0000000008000201007C
:1002000000030407000000000000000000000000E0
:100210002300260029000404040404040404020248
:100220000202020203030303030301020408102075
:100230004080010204081020010204081020EF127F
:10024000201A11241FBECFEFD8E0DEBFCDBF28E0BB
:10025000A0EFB4E001C01D92AD34B207E1F714E0A5
:10026000A0E0B1E0E6EBFBE402C005900D92A03FF8
:10027000B107D9F711E0C0E2D1E004C02197FE0137
:100280000E941D21CF31D107C9F70E9442130C945F
:10029000CE250C940000E0913B05F0913C05309791
:1002A00029F01092E5051092070609940895CF935E
:1002B000DF93EC01E0913905F0913A053097F1F0C8
:1002C00090919705809196059817C0F090E0292F9E
:1002D00030E02617370754F4DE01A20FB31F4C910C
:1002E00028563A4FD9014C939F5FF1CF1092970552
:1002F00060939605CB01DF91CF910994DF91CF9167
:1003000008950895DC01ED91FC910190F081E02DBC
:100310000994AF92BF92CF92DF92EF92FF920F9328
:100320001F93CF93DF936C017B018B01040F151F8B
:10033000EB015E01AE18BF08C017D10759F06991F3
:10034000D601ED91FC910190F081E02DC601099557
:10035000892B79F7C501DF91CF911F910F91FF9004
:10036000EF90DF90CF90BF90AF900895FC01538D38
:10037000448D252F30E0842F90E0821B930B54177F
:1003800018F081509F4F089501970895FC01918DB9
:10039000828D981759F0A28DAE0FBF2FB11D5D96BB
:1003A0008C91928D9F5F928F90E008958FEF9FEFD9
:1003B0000895FC01918D828D981731F0828DE80FA0
:1003C000F11D858D90E008958FEF9FEF0895FC015A
:1003D000918D828D981B892F90E0089588E096E09A
:1003E0000E94E70121E0892B09F420E0822F089583
:1003F00080E090E0892B29F00E94EE0181110C949D
:1004000000000895FC01A48DA80FB92FB11DA35EB3
:10041000BE4F9C91848D8F5F848FA689B7899C93F2
:10042000A089B1898C91837080648C93938D848D25
:10043000981306C00288F389E02D80818F7D808328
:1004400008950F931F93CF93DF93EC0181E0888F82
:100450009B8D8C8D981318C0E889F989808185FF60
:1004600013C09FB7F894EE89FF896083E889F98902
:1004700080818370806480839FBF81E090E0DF9102
:10048000CF911F910F910895062F1B8D1F5F8C8DAB
:1004900081130CC00FB607FCFACFE889F989808177
:1004A00085FFF5CFCE010E940202F1CFEB8DEC0F5C
:1004B000FD2FF11DE35EFE4F00839FB7F8941B8F65
:1004C000EA89FB8980818062D6CFCF93DF93EC01EC
:1004D000888D8823B9F0AA89BB89E889F9898C912C
:1004E00085FD03C0808186FD0DC00FB607FCF7CFE8
:1004F0008C9185FFF2CF808185FFEDCFCE010E94E8
:100500000202E9CFDF91CF910895833081F028F482
:10051000813099F08230A9F008958730A9F08830B1
:10052000C9F08430B1F4809180008F7D03C0809148
:1005300080008F7780938000089584B58F7784BD85
:10054000089584B58F7DFBCF8091B0008F77809325
:10055000B00008958091B0008F7DF9CFCF93DF93E5
:10056000282F30E0F901E850FE4F8491F901E65D53
:10057000FD4FD491F901EA5EFD4FC491CC23A1F067
:1005800081110E948502EC2FF0E0EE0FFF1FE45F67
:10059000FD4FA591B491EC91ED2381E090E009F439
:1005A00080E0DF91CF91089580E090E0FACF1F9333
:1005B000CF93DF93282F30E0F901E850FE4F84916C
:1005C000F901E65DFD4FD491F901EA5EFD4FC4915A
:1005D000CC23A9F0162F81110E948502EC2FF0E0A8
:1005E000EE0FFF1FE251FE4FA591B4918FB7F89423
:1005F000EC91111108C0D095DE23DC938FBFDF9101
:10060000CF911F910895DE2BF8CFCF93DF9390E029
:10061000FC01E65DFD4F24918A5E9D4FFC018491B3
:100620008823D1F090E0880F991FFC01EC51FE4F18
:10063000A591B491FC01E251FE4FC591D491611195
:100640000EC09FB7F8948C91E22FE0958E238C9387
:100650002881E223E8839FBFDF91CF9108958FB770
:10066000F894EC91E22BEC938FBFF6CF8E3008F02C
:100670008E508770806480937C0080917A008064C3
:1006800080937A0080917A0086FDFCCF809178007B
:100690009091790008953FB7F89480913505909135
:1006A0003605A0913705B091380526B5A89B05C041
:1006B0002F3F19F00196A11DB11D3FBFBA2FA92FE1
:1006C000982F8827BC01CD01620F711D811D911DDE
:1006D00042E0660F771F881F991F4A95D1F708954A
:1006E0008F929F92AF92BF92CF92DF92EF92FF9242
:1006F0004B015C010E944B036B017C010E944B0388
:100700006C197D098E099F09683E7340810591052A
:10071000A8F321E0821A9108A108B10888EEC80E5A
:1007200083E0D81EE11CF11C81149104A104B104E2
:1007300029F7FF90EF90DF90CF90BF90AF909F9000
:100740008F90089520911105260F3327331F2132F2
:100750003105ECF42091DE05FC0190E080E02430CE
:1007600069F082E00895A09111052191AC014F50EC
:100770005B4FA40FB52FB11D2C930196861798F3EC
:1007800080911105680F6093110580E0089581E064
:1007900008951092DE0581E08093DD051092B80582
:1007A00061E082E10E94D70261E083E10E94D7020A
:1007B000E9EBF0E080818E7F808380818D7F808374
:1007C00088E48093B80085E48093BC00089510927B
:1007D0009705109296051092E505109207060E9463
:1007E000C9038BE491E0909395058093940587E588
:1007F00091E090939305809392050895CF93DF93B2
:1008000091E09093F0048823B9F0C091B800D091A2
:10081000BA008091BC008A7B8093BC0060E082E1DA
:100820000E94D70260E083E10E94D7020E94C903C0
:10083000D093BA00C093B800DF91CF910895CF92C2
:10084000DF92EF92FF920F931F93CF93DF93D0919C
:10085000070681E0D13208F09CC0C09106060E94D4
:100860004B036B017C018091DE0581116CC082E03D
:100870008093DE0581E08093DD058FEF8093DC05BA
:100880001092DB05D093DA05A6EEB5E0EAEBF5E0D1
:1008900080E0D8138DC01092B9058091B905CC0FB6
:1008A000C82BC093B9058091B805813009F084C088
:1008B0001092B8050E944B036B017C018091B90531
:1008C0008093BB008091E0059091E105A091E20545
:1008D000B091E305892B8A2B8B2BA1F00E944B034F
:1008E0000091E0051091E1052091E2053091E305CA
:1008F0006C197D098E099F09061717072807390704
:1009000008F442C08091BC0083FDD8CF85EC809371
:10091000BC000E944B036B017C018091DE0582309C
:1009200009F44CC08091DC058F3F09F469C08091C7
:10093000DC05803209F466C08091DC05803309F45F
:1009400063C084E026C08091E0059091E105A0910C
:10095000E205B091E305892B8A2B8B2B09F483CF19
:100960000E944B030091E0051091E1052091E20502
:100970003091E3056C197D098E099F090617170749
:100980002807390708F06FCF8091DF050E94FE032A
:1009900085E01092E505109207061092E405DF91BC
:1009A000CF911F910F91FF90EF90DF90CF9008951E
:1009B0009D9191938F5F6DCF85EEA9CF8091E005DA
:1009C0009091E105A091E205B091E305892B8A2B76
:1009D0008B2B09F4A2CF0E944B030091E0051091EC
:1009E000E1052091E2053091E3056C197D098E093E
:1009F0009F09061717072807390708F08ECFC4CFBD
:100A000080E0C7CF82E0C5CF83E0C3CFCF92DF9233
:100A1000EF92FF920F931F93CF93DF93D82FC62FA0
:100A2000613208F098C00E944B036B017C018091F9
:100A3000DE0581116BC081E08093DE058093DD05CA
:100A40009FEF9093DC051092DB059C0F9093DA05E5
:100A50008093B9058091B905DD0FD82BD093B905E6
:100A60008091B805813009F078C01092B8050E94D5
:100A70004B036B017C018091B9058093BB00809191
:100A8000E0059091E105A091E205B091E305892B85
:100A90008A2B8B2BA1F00E944B030091E005109153
:100AA000E1052091E2053091E3056C197D098E097D
:100AB0009F09061717072807390708F448C08091CF
:100AC000BC0083FDD8CF85EC8093BC000E944B0313
:100AD0006B017C018091DE05813009F440C080917A
:100AE000DB058C1710F4C091DB05EAEBF5E0A8E913
:100AF000B5E080E08C1355C08C2FDF91CF911F9112
:100B00000F91FF90EF90DF90CF9008958091E005D6
:100B10009091E105A091E205B091E305892B8A2B24
:100B20008B2B09F484CF0E944B030091E0051091B8
:100B3000E1052091E2053091E3056C197D098E09EC
:100B40009F09061717072807390708F070CF80910B
:100B5000DF050E94FE03C0E0CFCF85EEB5CF8091C8
:100B6000E0059091E105A091E205B091E305892BA4
:100B70008A2B8B2B09F4AECF0E944B030091E0052A
:100B80001091E1052091E2053091E3056C197D0992
:100B90008E099F09061717072807390708F09ACF0B
:100BA000D6CF91919D938F5FA5CF0895E091970542
:100BB00080919605E81730F4F0E0E856FA4F80810E
:100BC00090E008958FEF9FEF0895909197058091A1
:100BD00096052FEF3FEF981748F4E92FF0E0E8561D
:100BE000FA4F208130E09F5F90939705C9010895E7
:100BF0008091960590919705891B990B0895CF9246
:100C0000DF92EF92FF920F931F93CF93DF937C01BC
:100C1000CB018A012091E405222389F0EB016B01CD
:100C2000C40ED51ECC15DD0569F06991D701ED9193
:100C3000FC910190F081E02DC7010995F3CF642F5D
:100C40000E94A203C801DF91CF911F910F91FF90E5
:100C5000EF90DF90CF900895CF93DF931F92CDB7A1
:100C6000DEB769832091E4052223F9F0209107067D
:100C7000203258F021E030E0FC013383228390E001
:100C800080E00F90DF91CF9108958091E505E82FE6
:100C9000F0E0EA51FA4F998190838F5F8093E505E8
:100CA0008093070681E090E0ECCF61E0CE010196F1
:100CB0000E94A203F7CFCF93C82F81E08093E40571
:100CC00087E7809306061092E5051092070664EF09
:100CD00085E298E00E942C066C2F85E298E00E9445
:100CE0002C06CF910C941F04FC01248131E0309339
:100CF000E405209306061092E50510920706838509
:100D0000682B85E298E00E942C060C941F0490E06A
:100D100080E00895CF92DF92EF92FF921F93CF93DE
:100D2000DF937C0110E0C7E0D0E083E7C82ED12C30
:100D3000F70180810E94AE020197D1F7C6010197A9
:100D4000F1F7F70180810E94AE028130910561F4D4
:100D50000C2E01C0880F0A94EAF7182BF701808146
:100D60000E94AE02892BD1F7219710F7812FDF91D6
:100D7000CF911F91FF90EF90DF90CF9008958F92C9
:100D80009F92AF92BF92CF92DF92EF92FF920F931A
:100D90001F93CF93DF938C01C62F49015A010E9404
:100DA0004B036B017C018C0C9D1CAE1CBF1CD0E066
:100DB000F80180810E94AE028C179D0759F00E94B5
:100DC0004B0386169706A806B90690F76FEF7FEFDC
:100DD000CB0106C00E944B036C197D098E099F0947
:100DE000DF91CF911F910F91FF90EF90DF90CF9007
:100DF000BF90AF909F908F900895CF93DF93C1E005
:100E0000C093E40597E7909306061092E5051092CB
:100E10000706682F85E298E00E942C060E941F04B6
:100E2000C093E4051092E5051092070662E087E79B
:100E30000E940605109297058093960585E298E03A
:100E40000E94E505D82F80E0C82F85E298E00E9437
:100E5000E505C82BD92B0E941F04CE01DF91CF914D
:100E600008958EE20E945B0665E070E080E090E00D
:100E70000E94700386EF0C94FD06CF93C1E0C093EF
:100E8000E40597E7909306061092E5051092070691
:100E9000682F85E298E00E942C060E941F04C093F0
:100EA000E4051092E5051092070661E087E70E94CD
:100EB0000605109297058093960585E298E00E94BA
:100EC000E505C82F0E941F048C2FCF9108954F92E3
:100ED0005F926F927F928F929F92AF92BF92CF92CA
:100EE000DF92EF92FF921F93CF93DF9300D000D059
:100EF00000D0CDB7DEB79E838D830E9431074C01B1
:100F0000B12CA12CAD81BE818C918295880F880F68
:100F1000807C8C5C0E945B06ED81FE81808181116A
:100F200064C165E070E080E090E00E94700386EFAD
:100F30000E94FD06B0E0A0E0CC24D82EE92EFA2EC7
:100F400088EF0E943D07C82AAD81BE811C9155964D
:100F50008D919C915697A5019401281B390B41094D
:100F6000510953960D90BC91A02D0E94D61D2B01C6
:100F70003C01AFE07594679457944794AA95D1F7D4
:100F8000ED81FE8165857685072E000C880B990B17
:100F9000BBE0660F771F881F991FBA95D1F7278589
:100FA0003089032E000C440B550B240D351D461DB6
:100FB000571D0E94F620420E531E641E751EF0EA55
:100FC0004F1AFFE05F0A61087108A3019201C30193
:100FD000B2010E94C4204B015C018CE0B594A7943F
:100FE000979487948A95D1F7ED81FE81A581B6818A
:100FF0000E9415219B01AC019DE0559547953795C1
:1010000027959A95D1F729833A834B835C83A781EF
:10101000B085A50194010E9415219C01552737FD3B
:101020005095452F89819A81AB81BC81280F391F4A
:101030004A1F5B1F2E5F3F4F4F4F5F4F62E055953A
:101040004795379527956A95D1F730584F4F5F4FA1
:10105000A189B2890E94D61D9B01AC017FE0569503
:101060004795379527957A95D1F729833A834B830E
:101070005C8388E090E0811B910904C0F694E794BA
:10108000D794C7948A95D2F7A185B285A50194011A
:101090000E9415214B015C01ABE0B594A794979495
:1010A0008794AA95D1F7A381B481A30192010E94EC
:1010B0001521BBE09595879577956795BA95D1F7FA
:1010C000680D791D8A1D9B1D81809280092C000C62
:1010D000AA08BB0822E0880C991CAA1CBB1C2A95F4
:1010E000D1F7680D791D8A1D9B1D012E04C0660F66
:1010F000771F881F991F0A94D2F76E5F7F4F8F4F1B
:101100009F4F24E030E040E050E00E94F620D701FD
:10111000C601821B930BA40BB50B9C01AD0160E5CE
:1011200073EC80E090E004C096958795779567957D
:101130001A95D2F70E94C42097FD6AC0660F771FE8
:10114000881F991F29813A814B815C810E94D4209C
:1011500069017A019927F7FC9A958F2D7E2D6D2DC7
:101160009B01AC010E94C4209B01AC01AEEDBBE031
:101170000E94D61D4B015C01A3E4B3EEA7019601CA
:101180000E941821BC01992777FD9095892F450170
:10119000BB2497FCB094AB2C680D791D8A1D9B1D58
:1011A0006153714F8F4F9F4F44E095958795779589
:1011B00067954A95D1F76C0D7D1D8E1D9F1D269656
:1011C0000FB6F894DEBF0FBECDBFDF91CF911F9158
:1011D000FF90EF90DF90CF90BF90AF909F908F9057
:1011E0007F906F905F904F900895813029F468E070
:1011F00070E080E090E099CE823029F46EE070E0FB
:1012000080E090E092CE6AE170E080E090E08DCEE8
:1012100029813A814B815C810E94D42069017A0145
:10122000CC0CDD1CEE1CFF1C95CF0F931F93CF93AE
:101230008C01C62F0E9474066C2F6460C8010E9446
:1012400074066C2F6B7FC8010E94740683EC90E0DB
:101250000197F1F7CF911F910F9108950F931F936D
:10126000CF93DF938C01D62FC42F607F642B0E9415
:10127000150980E1D89FB00111246C2BC801DF91C2
:10128000CF911F910F910C94150940E061E08DE31F
:1012900098E00E942E098BE39FE10197F1F70895F2
:1012A000CF93DF93CDB7DEB728970FB6F894DEBFA4
:1012B0000FBECDBF98E0E6E0F1E0DE0111960190AF
:1012C0000D929A95E1F790914508961708F46FEF03
:1012D000262F30E0220F331F41E050E04C0F5D1FFE
:1012E000240F351FF9016081680F606840E08DE3CD
:1012F00098E028960FB6F894DEBF0FBECDBFDF9101
:10130000CF910C942E0941E00E942E0981E090E0DB
:1013100008950F931F93CF93DF938B0198E0899FDC
:10132000B0011124606440E08DE398E00E942E0932
:10133000E801085F1F4F69918DE398E00E948309DF
:10134000C017D107C1F7DF91CF911F910F91089579
:101350000F931F93CF93DF934115510541F0FC018B
:10136000048115810115110539F4FB011082DF910B
:10137000CF911F910F910895415051094017510786
:1013800008F48A01EB01FC0160817181A801CE01A2
:101390000E941E23C00FD11F1882E9CF20913B0865
:1013A00030913C08232B39F421E0FC018081882313
:1013B00061F020E00AC0BC018091370890913808A4
:1013C0000E940E2321E0892BA1F7822F0895CF934D
:1013D000DF93EC0188819981009711F00E94BF2171
:1013E000198218821D821C821B821A82DF91CF9182
:1013F0000895FC0180819181009711F00C94BF2128
:1014000008950F931F93CF93DF938C01EB01FC01A1
:10141000808191810097E1F0688179816115710582
:10142000A9F0428153812C813D814217530770F00E
:101430000E9417238C819D81F801958384831D82EE
:101440001C82DF91CF911F910F9108950E94BF21BF
:1014500088819981F801918380838A819B8193831C
:1014600082838C819D8195838483198218821B825B
:101470001A82E5CFFB0101900020E9F73197AF0117
:10148000461B570BDC01ED91FC910280F381E02DAE
:101490000994CF93DF93FC01448155816081718170
:1014A00088E096E00E948901EC0166E671E088E040
:1014B00096E00E943A0A8C0F9D1FDF91CF9108950C
:1014C0006115710511F00C943A0A90E080E00895DE
:1014D000CF93DF93BC0188E096E00E94600AEC01A4
:1014E00066E671E088E096E00E943A0A8C0F9D1F44
:1014F000DF91CF9108958F929F92AF92BF92EF921A
:10150000FF920F931F93CF93DF93CDB7DEB7A197D1
:101510000FB6F894DEBF0FBECDBF7C01FA01CB0140
:1015200019A2223008F42AE08E010F5D1F4F822E8F
:10153000912CB12CA12CBF01A50194010E94D420B3
:10154000F901CA016A30ECF4605DD8016E938D0137
:10155000232B242B252B79F7BD01C7010E94600A9C
:10156000A1960FB6F894DEBF0FBECDBFDF91CF912D
:101570001F910F91FF90EF90BF90AF909F908F9031
:101580000895695CE2CFCF92DF92EF92FF920F93C2
:101590001F93CF93DF936B01770FEE08FF08F7FEE1
:1015A0001BC0EC016DE20E9482018C01442755278B
:1015B000BA014C195D096E097F092AE0CE010E942B
:1015C0007B0A800F911FDF91CF911F910F91FF90A8
:1015D000EF90DF90CF9008952AE0B701A601DF9148
:1015E000CF911F910F91FF90EF90DF90CF900C94CF
:1015F0007B0A0C94600A2F923F924F925F926F92F7
:101600007F928F929F92AF92BF92CF92DF92EF9292
:10161000FF921F93CF93DF93EC016A017B01722E3F
:10162000AB019601CB01B6010E948A1F69E671E009
:10163000811126C046015701E894B7F82FEF3FEF1C
:101640004FE75FE7C501B4010E948A1F81110CC0FA
:101650002FEF3FEF4FE75FE7C501B4010E94B21CD7
:101660006DE671E0181664F02FEF3FEF4FE75FE48F
:10167000C701B6010E94351F1816B4F461E771E086
:10168000CE01DF91CF911F91FF90EF90DF90CF902F
:10169000BF90AF909F908F907F906F905F904F9092
:1016A0003F902F900C943A0A2FEF3FEF4FE75FECFB
:1016B000C701B6010E94B21C87FDE0CF20E030E0F8
:1016C000A901C701B6010E94B21C312C212C87FF51
:1016D00009C06DE2CE010E9482011C01F7FAF0946C
:1016E000F7F8F09410E060E070E080E09FE371169E
:1016F00041F020E030E040E251E40E94941E1F5F80
:10170000F6CFA70196010E94281E2B013C010E94E2
:10171000061F4B015C012AE0BC01A401CE010E941E
:101720007B0A7C01E20CF31C1123C1F1C501B40159
:101730000E94B71C9B01AC01C301B2010E94271E8D
:101740004B015C016EE2CE010E948201E80EF91E9F
:10175000115020F120E030E040E251E4C501B40135
:101760000E94181D2B013C010E94061F4B01B12C49
:10177000A12C2AE0B501A401CE010E947B0AE80E4B
:10178000F91EC501B4010E94B71C9B01AC01C30145
:10179000B2010E94271E4B015C01DACFC701DF9125
:1017A000CF911F91FF90EF90DF90CF90BF90AF90BF
:1017B0009F908F907F906F905F904F903F902F9071
:1017C00008950F931F93CF93DF93EC018881998144
:1017D000009759F02A813B812617370730F081E0C6
:1017E000DF91CF911F910F9108958B016F5F7F4F14
:1017F0000E944822009759F0998388831B830A83AB
:101800002C813D81232B59F7FC011082E8CF80E029
:10181000E7CFEF92FF920F931F93CF93DF938C014B
:101820007B01EB0109900020E9F72197C61BD70B3C
:10183000BE010E94E10B811109C0C801DF91CF9167
:101840001F910F91FF90EF900C94E709F801D58359
:10185000C483B70180819181DF91CF911F910F9156
:10186000FF90EF900C9417230F931F93CF93DF9368
:10187000CDB7DEB761970FB6F894DEBF0FBECDBF10
:101880008C01CB01F8011182108213821282158221
:1018900014824AE0BE016F5F7F4F0E94511ABE0161
:1018A0006F5F7F4FC8010E94090C61960FB6F894D4
:1018B000DEBF0FBECDBFDF91CF911F910F91089575
:1018C0000F931F93CF93DF93CDB7DEB762970FB619
:1018D000F894DEBF0FBECDBF8C01CB01F8011182A1
:1018E000108213821282158214824AE0BE016F5F59
:1018F0007F4F0E94461ABE016F5F7F4FC8010E9452
:10190000090C62960FB6F894DEBF0FBECDBFDF9113
:10191000CF911F910F910895EF92FF920F931F9314
:10192000CF93DF93CDB7DEB7A1970FB6F894DEBFA4
:101930000FBECDBF7C01CB01BA01F701118210822D
:1019400013821282158214828E010F5F1F4F22E0D4
:1019500044E00E94281A009789F0BC01C7010E9448
:10196000090CA1960FB6F894DEBF0FBECDBFDF9174
:10197000CF911F910F91FF90EF900895C7010E94A2
:10198000E709EFCFEF92FF920F931F93CF93DF936F
:101990006115710541F480E0DF91CF911F910F91A6
:1019A000FF90EF90089541155105B1F07B01EC01D6
:1019B0000C811D81040F151FB8010E94E10B8823C3
:1019C00051F3288139818C819D81B701820F931F4A
:1019D0000E9417231D830C8381E0DECFCF93DF931A
:1019E000EC01FB0144815581608171810E94C20C30
:1019F000811103C0CE010E94E709CE01DF91CF9192
:101A00000895CF93DF9300D0CDB7DEB780919605D0
:101A100090919705891B990B1816190684F485E295
:101A200098E00E94E50589831A8241E050E0BE01FA
:101A30006F5F7F4F87E398E00E94C20CE7CF0F9063
:101A40000F90DF91CF910895EF92FF920F931F9324
:101A5000CF93DF93EC017B01198218821B821A82DB
:101A60001D821C82FB0101900020E9F731978F0154
:101A7000061B170BB8010E94E10B811109C0CE01B2
:101A8000DF91CF911F910F91FF90EF900C94E70998
:101A90001D830C83B70188819981DF91CF911F91BC
:101AA0000F91FF90EF900C9417230F931F93CF93F8
:101AB000DF93CDB7DEB7AC970FB6F894DEBF0FBE9D
:101AC000CDBF8E010F5F1F4F80E2F80111928A9502
:101AD000E9F768E671E0CE0187960E94240D85E75C
:101AE00091E00E94CE098823F9F060E871E085E278
:101AF00098E00E94600A80E891E00E94680A68E627
:101B000071E087E398E00E94090CCE0187960E945D
:101B1000F909AC960FB6F894DEBF0FBECDBFDF91CA
:101B2000CF911F910F91089580E991E00E94CE0915
:101B3000882341F16EE971E0CE0181960E94240D67
:101B400067E378E0CE0181960E94EE0C0E94490A7C
:101B5000CE0181960E94F90980919105882349F070
:101B600066EC71E085E298E00E94600A89EA91E003
:101B7000C4CF66EE71E085E298E00E94600A89ECCD
:101B800091E0BBCF89EE91E00E94CE09882339F025
:101B90008EEF91E00E94680A10929105B0CF88E123
:101BA00092E00E94CE09882309F448C061E084E0F5
:101BB0000E94D70260ED77E080E090E00E94700321
:101BC0006EE971E0CE0181960E94240D67E378E012
:101BD000CE0181960E94EE0C0E94490ACE018196A8
:101BE0000E94F909409145055091460560914705CD
:101BF00070914805CE0181960E948C0CBE016F5DEC
:101C00007F4F81E398E00E94010ACE0181960E94F5
:101C1000F909409141055091420560914305709149
:101C20004405CE0181960E948C0C4DA15EA169A154
:101C30007AA181E398E00E94C20CE1C088E492E0BE
:101C40000E94CE09882309F449C061E084E00E9423
:101C5000D70260ED77E080E090E00E9470036EE9CB
:101C600071E0CE0181960E94240D67E378E0CE01F9
:101C700081960E94EE0C0E94490ACE0181960E9434
:101C8000F90940913508509136084F5F5F4FB80110
:101C900081E398E00E94A80960E572E0CE01819698
:101CA0000E94240D61E378E0CE0181960E94EE0C43
:101CB0000E94490ACE0181960E94F909B80185E285
:101CC00098E00E94600A60ED77E080E090E00E947A
:101CD000700360E084E00E94D70211CF84E692E0B6
:101CE0000E94CE09882329F161E084E00E94D70296
:101CF00060ED77E080E090E00E9470036EE971E0B3
:101D0000CE0181960E94240D67E378E0CE01819692
:101D10000E94EE0C0E94490ACE0181960E94F909A8
:101D20006091850570918605CE0181960E94600CB8
:101D30005FC085E792E00E94CE09882351F161E0FF
:101D400084E00E94D70260ED77E080E090E00E949E
:101D500070036EE971E0CE0181960E94240D67E365
:101D600078E0CE0181960E94EE0C0E94490ACE01D5
:101D700081960E94F90940913508509136084F5FCD
:101D80005F4FB80181E398E00E94A8096DE772E017
:101D900085CF81E992E00E94CE09882309F463C0CF
:101DA00061E084E00E94D70260ED77E080E090E09F
:101DB0000E9470036EE971E0CE0181960E94240DAD
:101DC00067E378E0CE0181960E94EE0C0E94490AFA
:101DD000CE0181960E94F90940918D0550918E05A2
:101DE00060918F0570919005CE0181960E948C0CB8
:101DF000BE016F5D7F4F81E398E00E94010ACE0132
:101E000081960E94F9096091350870913608CE01DB
:101E100081960E94340CBE016F5D7F4FCE01879684
:101E20000E94010ACE0181960E94F90969E272E0DE
:101E3000CE0181960E94240DBE01695D7F4FCE01C7
:101E400081960E94EE0C0E94490ACE0181960E9462
:101E5000F9094BA55CA54F5F5F4FB801CE0187968E
:101E60000E94A8092BCF82EA92E00E94CE09882323
:101E700051F161E084E00E94D70260ED77E080E0FC
:101E800090E00E9470036EE971E0CE0181960E949D
:101E9000240D67E378E0CE0181960E94EE0C0E944B
:101EA000490ACE0181960E94F90940913508509166
:101EB00036084F5F5F4FB80181E398E00E94A809A0
:101EC0006AEA72E0EBCE8EEB92E00E94CE098823A4
:101ED00029F161E084E00E94D70260ED77E080E0C4
:101EE00090E00E9470036EE971E0CE0181960E943D
:101EF000240D67E378E0CE0181960E94EE0C0E94EB
:101F0000490ACE0181960E94F909409189055091B4
:101F10008A0560918B0570918C0566CF8FEC92E0FD
:101F20000E94CE09882351F161E084E00E94D7022B
:101F300060ED77E080E090E00E9470036EE971E070
:101F4000CE0181960E94240D67E378E0CE01819650
:101F50000E94EE0C0E94490ACE0181960E94F90966
:101F600040913508509136084F5F5F4FB80181E3CB
:101F700098E00E94A80967ED72E090CE8BEE92E0A7
:101F80000E94CE09882309F161E084E00E94D70213
:101F900060ED77E080E090E00E9470036EE971E010
:101FA000CE0181960E94240D67E378E0CE018196F0
:101FB0000E94EE0C0E94490ACE0181960E94F90906
:101FC0006091870570918805AFCE8CEF92E00E94FA
:101FD000CE09882351F161E084E00E94D70260EDD0
:101FE00077E080E090E00E9470036EE971E0CE013E
:101FF00081960E94240D67E378E0CE0181960E94CD
:10200000EE0C0E94490ACE0181960E94F909409186
:102010003508509136084F5F5F4FB80181E398E073
:102020000E94A80964E073E039CE88E193E00E9441
:10203000CE09882309F446C061E084E00E94D702FB
:1020400060ED77E080E090E00E9470036EE971E05F
:10205000CE0181960E94240D67E378E0CE0181963F
:102060000E94EE0C0E94490ACE0181960E94F90955
:1020700069E475E0CE0181960E94240DBE016F5D7A
:102080007F4F81E398E00E94010ACE0181960E9471
:10209000F9096DE575E0CE0181960E94240D4DA1F0
:1020A0005EA169A17AA181E398E00E94C20CCE01F1
:1020B00081960E94F90961E775E0CE0181960E9440
:1020C000240DB3CD89E293E00E94CE09882309F460
:1020D00016CD61E084E00E94D70260ED77E080E0F9
:1020E00090E00E9470036EE971E0CE0181960E943B
:1020F000240D67E378E0CE0181960E94EE0C0E94E9
:10210000490ACE0181960E94F90940913508509103
:1021100036084F5F5F4FB80181E398E00E94A8093D
:1021200061E373E0CE0181960E94240D61E378E0C3
:10213000CE0181960E94EE0C0E94490ACE01819642
:102140000E94F909B80185E298E00E94600A60EDFA
:1021500077E080E090E00E94700360E084E00E94FD
:10216000D7021ACD85ED8093BC008091E005909157
:10217000E105A091E205B091E3050796A11DB11D0F
:1021800023E0B695A795979587952A95D1F7209145
:10219000BC0024FD03C01092DE0508954091E005C7
:1021A0005091E1056091E2057091E305452B462BC6
:1021B000472B69F30097A105B10541F025E32A9566
:1021C000F1F700000197A109B109E1CF8091DF0586
:1021D0000C94FE031F920F920FB60F9211242F93AF
:1021E0003F934F935F936F937F938F939F93AF939F
:1021F000BF93EF93FF9388E096E00E940202FF9165
:10220000EF91BF91AF919F918F917F916F915F916E
:102210004F913F912F910F900FBE0F901F901895E7
:102220001F920F920FB60F9211242F938F939F93AB
:10223000EF93FF93E0911806F09119068081E091E9
:102240001E06F0911F0682FD1AC090818091210622
:102250008F5F20912206821741F0E0912106F0E085
:10226000E85FF94F958F80932106FF91EF919F9141
:102270008F912F910F900FBE0F901F901895808116
:10228000F4CF1F920F920FB60F9211242F933F930A
:102290008F939F93AF93BF9380913D0590913E059F
:1022A000A0913F05B09140053091340523E0230F04
:1022B0002D3758F50196A11DB11D2093340580934B
:1022C0003D0590933E05A0933F05B0934005809156
:1022D000350590913605A0913705B09138050196E6
:1022E000A11DB11D8093350590933605A093370548
:1022F000B0933805BF91AF919F918F913F912F91EE
:102300000F900FBE0F901F90189526E8230F02968E
:10231000A11DB11DD2CF1F920F920FB60F921124A3
:102320002F933F934F935F936F937F938F939F93DD
:10233000AF93BF93EF93FF938091B900887F80366E
:1023400009F44AC0F0F5883209F4A7C018F58031C5
:1023500009F49BC0B8F4882309F4F9C0883009F463
:1023600094C0FF91EF91BF91AF919F918F917F9119
:102370006F915F914F913F912F910F900FBE0F90F2
:102380001F901895883109F488C0803251F78093E6
:10239000DC0514C0803409F49DC040F48033B9F3E7
:1023A0008833F9F68093DC0585ECB0C0803509F4FC
:1023B00085C0883509F496C0883499F60E94B21019
:1023C000D0CF883909F48CC038F5883729F050F41B
:1023D000883611F0803729F683E08093DE0510926D
:1023E000330557C0883809F47BC0803919F080382C
:1023F00009F0B7CF80913305803208F071C0E091C9
:10240000330581E08E0F809333058091BB00F0E0AF
:10241000ED5EFA4F80833DC0803B39F0E0F4803AB6
:1024200009F479C0883A09F09CCF84E08093DE05F6
:102430001092120510921105E0919405F091950506
:1024400009958091110581110FC081E080931105DC
:102450001092F10409C0803C09F4A6CF883C09F42D
:10246000A3CF883B09F07DCFE091120581E08E0F6C
:1024700080931205F0E0EF50FB4F80818093BB000A
:10248000909112058091110529C08091B905809322
:10249000BB0085EC8093BC0064CF9091DB058091FC
:1024A000DA05981758F5E091DB0581E08E0F8093EF
:1024B000DB05F0E0E654FA4F8081E9CFE091DB05DF
:1024C00081E08E0F8093DB058091BB00F0E0E65445
:1024D000FA4F80839091DB058091DA059817C8F256
:1024E00085E8D8CFE091DB0581E08E0F8093DB0596
:1024F0008091BB00F0E0E654FA4F80838091DD05C7
:1025000081115CCF81E08093B80584EA8093BC00A0
:102510001092DE0526CF85EC8093BC001092DE057C
:1025200080913305803230F4E0913305F0E0ED5EC8
:10253000FA4F10826091330570E0E0919205F091BE
:10254000930583E195E00995109233050ACF109227
:10255000DC0534CFCF92DF92EF92FF920F931F935F
:10256000E82FF92F05C0015011092109310961F146
:10257000908196239417B9F305C0015011092109E0
:10258000310911F1908196239413F7CFC12CD12CEE
:10259000E12CF12C0AC08FEFC81AD80AE80AF80A11
:1025A0000C151D052E053F0579F0808186238417C3
:1025B00091F36C2D7D2D8E2D9F2D1F910F91FF90EE
:1025C000EF90DF90CF90089560E070E080E090E0C1
:1025D0001F910F91FF90EF90DF90CF900895E8E06A
:1025E000F6E01382128288EE93E0A0E0B0E08483EC
:1025F0009583A683B7832AE331E03183208325ECDA
:1026000030E03587248724EC30E03787268720ECBC
:1026100030E0318B208B21EC30E0338B228B22ECAD
:1026200030E0358B248B26EC30E0378B268B118EF7
:10263000128E138E148EE5E2F8E0138212828483E8
:102640009583A683B7838CE491E091838083EDE347
:10265000F8E0138212828EE591E09183808387E215
:10266000848380E1818782E08287138668E671E057
:1026700087E398E00E94240D68E671E081E398E02A
:102680000C94240DCF93DF93CDB7DEB7E7970FB649
:10269000F894DEBF0FBECDBF789484B5826084BD50
:1026A00084B5816084BD85B5826085BD85B5816056
:1026B00085BD80916E00816080936E0010928100D4
:1026C000809181008260809381008091810081608F
:1026D0008093810080918000816080938000809150
:1026E000B10084608093B1008091B00081608093DC
:1026F000B00080917A00846080937A0080917A00A3
:10270000826080937A0080917A00816080937A0061
:1027100080917A00806880937A001092C100E091E5
:102720001806F091190682E08083E0911406F0917A
:1027300015061082E0911606F09117068FEC808343
:1027400010922006E0911C06F0911D0686E0808321
:10275000E0911A06F0911B06808180618083E091F0
:102760001A06F0911B06808188608083E0911A062A
:10277000F0911B06808180688083E0911A06F091B9
:102780001B0680818F7D808385E493E00E94680A28
:102790000E94E70380E18093BA0081E09DE090937E
:1027A0003A058093390585E59DE090933C0580933B
:1027B0003B0561E084E00E94050361E083E00E9444
:1027C000050361E085E00E94050360E086E00E9469
:1027D000050360E08FE00E94050388E0EEE0F1E091
:1027E000DE01D09601900D928A95E1F788E0E6E14E
:1027F000F1E0DE01989601900D928A95E1F788E06C
:10280000EEE1F1E0DE01909601900D928A95E1F7FC
:1028100088E0E6E2F1E0DE01589601900D928A959B
:10282000E1F788E0EEE2F1E0DE01119601900D9211
:102830008A95E1F70E94E7031092420880914708C9
:10284000823018F098E0909342088093450862E344
:1028500070E080E090E00E947003609148088DE392
:1028600098E00E94740668EE73E080E090E00E94B9
:10287000700360E38DE398E00E9415090BE416E411
:10288000C8010197F1F760E38DE398E00E94150914
:10289000C8010197F1F760E38DE398E00E94150904
:1028A00083E592E00197F1F760E28DE398E00E9402
:1028B000150960914208606240E08DE398E00E9453
:1028C0002E0984E08093430840E06CE08DE398E0BB
:1028D0000E942E090E94450982E08093440840E04E
:1028E00066E08DE398E00E942E0940E062E08DE30F
:1028F00098E00E942E090BE31FE1C8010197F1F750
:1029000088E08093480860E08DE398E00E947406B8
:10291000BE01605D7F4F80E00E948909BE01685D55
:102920007F4F81E00E948909BE01605E7F4F82E097
:102930000E948909BE01685E7F4F83E00E94890979
:10294000BE016F5F7F4F84E00E94890940E062E032
:102950008DE398E00E942E09C8010197F1F765E523
:1029600073E08DE398E00E94F90A80E693E00E940C
:10297000680A68EB7BE080E090E00E9470036FE5FE
:10298000262E64E0362E1092910560ED77E080E00F
:1029900090E00E94700361E083E00E94D70248E06B
:1029A00050E05A8349831B821C821D821E8260E094
:1029B00088E00E94050361E089810E94D70288E0D7
:1029C00090E00E9423217C012FB7F89480913D056F
:1029D00090913E05A0913F05B09140052FBF4B81DE
:1029E0005C816D817E81841B950BA60BB70B883EA5
:1029F0009340A105B10528F4452B462B472B09F040
:102A0000A3C061E089810E94050360E089810E9482
:102A1000D70262E170E080E090E00E94700361E024
:102A200089810E94D70260E089810E94050328E223
:102A300030E040E050E060E0CE0101960E94BF0629
:102A40002AE530E040E050E061E0CE0101960E94CE
:102A5000BF062AE530E040E050E060E0CE0101969C
:102A60000E94BF06CE0101960E948A06982ECE01D2
:102A700001960E948A06882ECE0101960E948A063F
:102A8000B82ECE0101960E948A06A82ECE0101968C
:102A90000E948A06492D480D5527551F9A012B0D76
:102AA000311D2A0D311D8217130609F04DC0682D06
:102AB00070E090E080E00E94B71C20E030E048EC3D
:102AC00052E40E94941E2B013C01692D70E090E0BD
:102AD00080E00E94B71C9B01AC01C301B2010E94BF
:102AE000281EF70164837583868397836A2D70E0BF
:102AF00090E080E00E94B71C20E030E048EC52E417
:102B00000E94941E2B013C016B2D70E090E080E050
:102B10000E94B71C9B01AC01C301B2010E94281E98
:102B2000F70160837183828393832FB7F894809138
:102B30003D0590913E05A0913F05B09140052FBF06
:102B40008B839C83AD83BE8368EE73E080E090E06E
:102B50000E94700364E773E088E096E00E94F90A3F
:102B6000F701448055806680778022E0B301A2019E
:102B700088E096E00E94FB0A64E873E088E096E053
:102B80000E94F90AF70180809180A280B38022E040
:102B9000B501A40188E096E00E94FB0A87E993E072
:102BA0000E94680A0E94450960E080E00E94500986
:102BB00060E08DE398E00E9483096AE973E08DE3A9
:102BC00098E00E94F90A22E0B301A2018DE398E0A7
:102BD0000E94FB0A62EA73E08DE398E00E94F90A22
:102BE00061E080E00E94500961E08DE398E00E947E
:102BF000830964EA73E08DE398E00E94F90A22E019
:102C0000B501A4018DE398E00E94FB0A62E08DE328
:102C100098E00E94830968E973E08DE398E00E94E0
:102C2000F90A409245055092460560924705709218
:102C300048058092410590924205A0924305B092CA
:102C4000440560ED77E080E090E00E94700360E072
:102C500083E00E94D702C7010E94BF2161E083E0A8
:102C60000E94D70261E085E00E94D70283E790E0EE
:102C70000197F1F760E085E00E94D702E0E3F2E01F
:102C80006491ECE1F2E08491E82FF0E0EE0FFF1F99
:102C9000E45FFD4F8591949100E412E42FE030E071
:102CA000462F0E94AA129B01AC0121153105410556
:102CB000510529F02F5F3F4F4F4F5F4F5F70A4E5E5
:102CC000B1E00E94D61D20E23EE440E050E00E94C8
:102CD000D420490168EE73E080E090E00E94700328
:102CE0006CEA73E088E096E00E94F90AB40188E09B
:102CF00096E00E94C30A81EB93E00E94680A0E945A
:102D0000450960E082E00E94500964EB73E08DE3C6
:102D100098E00E94F90A61E086E00E945009B4013F
:102D20008DE398E00E94C30A61EB73E08DE398E0C5
:102D30000E94F90A909286058092850560ED77E001
:102D400080E090E00E94700360E083E00E94D70280
:102D500061E083E00E94D70282E090E00E9423219C
:102D60005C018EE00E9436037C01F5019183808333
:102D700068EE73E080E090E00E94700361EC73E025
:102D800088E096E00E94F90A27010F2C000C6608E3
:102D900077082AE0B301A20177FE0DC06DE288E05A
:102DA00096E00E94820144275527BA01441955092B
:102DB000660977092AE088E096E00E947B0A66E6C9
:102DC00071E088E096E00E943A0A0E94450960E0BE
:102DD00081E00E94500960ED73E08DE398E00E946D
:102DE000F90A61E086E00E945009B7018DE398E09E
:102DF0000E94C30A6FED73E08DE398E00E94F90A28
:102E0000F0928805E092870560ED77E080E090E041
:102E10000E94700360E083E00E94D702C5010E9417
:102E2000BF2161E083E00E94D7028FE00E94360359
:102E3000BC01990F880B990B0E94B91C20E030E06F
:102E400040E85AE30E94181D20E030E040EA50E4D8
:102E50000E94181D4B015C01AC019B0160E070E019
:102E600080EA90E40E94271EA50194010E94941E0E
:102E700020E030E041EE55E40E94941E28EB3EE451
:102E800040EC54E40E94181D23E830EC4AED5FEB5F
:102E90000E943A1F4B015C0168EE73E080E090E015
:102EA0000E94700362EE73E088E096E00E94F90AE7
:102EB00022E0B501A40188E096E00E94FB0A66E6E4
:102EC00071E088E096E00E943A0A0E94450960E0BD
:102ED00081E00E94500962EF73E08DE398E00E9468
:102EE000F90A61E085E00E94500922E0B501A401E1
:102EF0008DE398E00E94FB0A61E074E08DE398E0C6
:102F00000E94F90A8092890590928A05A0928B0509
:102F1000B0928C0560ED77E080E090E00E94700355
:102F200060E083E00E94D70261E083E00E94D70264
:102F3000ECE2F2E06491E8E1F2E08491E82FF0E065
:102F4000EE0FFF1FE45FFD4F8591949100E412E4C2
:102F50002FE030E040E00E94AA1261157105810562
:102F6000910529F06F5F7F4F8F4F9F4F9F700E9499
:102F7000B71C4B015C0164EF71E080E090E00E94BF
:102F8000700320E030E0A901C501B4010E94B21C29
:102F9000882371F260E070E0CB010E94B71CA501AC
:102FA00094010E94281E0E94061F0E94B71C20E068
:102FB00030E44CE956E40E94941E4B015C0120E091
:102FC00030E040E450E40E943A1F2DEC3CEC4CE829
:102FD0005FE30E94181D2B013C01A5019401C5016E
:102FE000B4010E94181D23E333E343E750E40E9439
:102FF000181D9B01AC01C301B2010E94271E2B01C9
:103000003C0120E030E042E054E4C501B4010E94FC
:10301000181D9B01AC01C301B2010E94281E22E5CC
:1030200038EB4EE15FE30E94281E20E030E048ECE0
:1030300052E40E94181D20E030E24BE456E40E9466
:10304000941E4B015C0165E074E088E096E00E940C
:10305000F90A22E0B501A40188E096E00E94FB0A8B
:1030600081E194E00E94680A0E94450960E082E0E4
:103070000E94500968E174E08DE398E00E94F90A2B
:1030800061E083E00E94500922E0B501A4018DE3D4
:1030900098E00E94FB0A65E274E08DE398E00E94EC
:1030A000F90A63E08DE398E00E94830964E08DE310
:1030B00098E00E94830980928D0590928E05A092DF
:1030C0008F05B092900560ED77E080E090E00E947F
:1030D000700360E083E00E94D70261E083E00E9419
:1030E000D70288EC90E00E9423217C0183E0898351
:1030F0000E94E70380ED0E943D07853509F48FC0EB
:1031000089E294E00E94680A6CEA73E088E096E045
:103110000E94F90AC601885B9F4F0E94680A0E94BC
:10312000450960E080E00E94500961E08DE398E08D
:103130000E94830946015CE0850E911CB4018DE379
:1031400098E00E94F90A62E08DE398E00E9483090A
:1031500064E874E08DE398E00E94F90A67E874E09F
:103160008DE398E00E94F90A760184E3E80EF11CF1
:10317000B7018DE398E00E94F90A62EB73E08DE3FA
:1031800098E00E94F90A61E080E00E9450096AE834
:1031900074E08DE398E00E94F90A560190E2A90ECE
:1031A000B11CB5018DE398E00E94F90A60E974E072
:1031B0008DE398E00E94F90AB40189E495E00E9449
:1031C0001723B5018DE595E00E941723B70181E72C
:1031D00095E00E94172360ED77E080E090E00E9488
:1031E000700360E083E00E94D702C6010E94BF2105
:1031F00081E08093910583E994E00E94680A85EB61
:1032000094E00E94680A80919105882309F405C121
:1032100060ED77E080E090E00E947003F4CF8AEAEE
:103220000E94FD069B838A838CEA0E94FD069D8393
:103230008C838EEA0E94FD069F838E8380EB0E9422
:10324000FD069B8B8A8B82EB0E94FD069D8B8C8BEF
:1032500084EB0E94FD069F8B8E8B86EB0E94FD0601
:103260009987888788EB0E94FD069B878A878AEB6F
:103270000E94FD069D878C878CEB0E94FD069F8730
:103280008E878EEB0E94FD06998B888BCE0101966E
:103290000E9431079C0150E040E08E899F89281BE5
:1032A000390B41095109AC89BD890E94D61D4B01DA
:1032B0005C018FE0B594A794979487948A95D1F791
:1032C0006E857F85072E000C880B990B2BE0660F0F
:1032D000771F881F991F2A95D1F728893989032ECE
:1032E000000C440B550B280D391D4A1D5B1D0E9417
:1032F000F620CA01B901680D791D8A1D9B1D685F02
:103300007F4F8F4F9F4F34E09595879577956795C1
:103310003A95D1F70E94B91C20E030E040E251E438
:103320000E94941EF7016083718382839383CE0190
:1033300001960E9467070E94B91CF7016483758398
:1033400086839783CE0101960E9467070E94B91C6D
:1033500020E030E746EC57E40E94941E21E03EED69
:1033600042E45EE30E943A1F9B01AC0160E070E022
:1033700080E89FE30E94271E20E03AE24DE257E4F6
:103380000E94181DF7016087718782879387670104
:10339000FCE0CF0ED11CF7016081718182819381A5
:1033A000860122E044E00E94281A5701F0E2AF0EA5
:1033B000B11CF7016481758186819781850122E0C6
:1033C00049E00E94281A4701F4E38F0E911CF7018F
:1033D0006085718582859385840122E045E00E94A5
:1033E000281A9F928F92BF92AF92DF92CF923F9214
:1033F0002F92C701885B9F4F9F938F930E942D232D
:1034000068EE73E080E090E00E9470030FB6F894DD
:10341000DEBF0FBECDBF670177CE68E671E087E300
:1034200098E00E94090CE0E0F0E0EF2B09F4ABCA51
:103430000E94EE01882309F4A6CA0E940000A3CAD4
:1034400081E398E00E94F90987E398E00C94F90978
:10345000EF920F931F93CF93DF93E80134E047FD82
:1034600034E1042E000C550B57FF03C051954195D4
:103470005109E32E022F242FAE010E946B1ACE01B8
:10348000DF91CF911F910F91EF900895BB274A30A4
:1034900031F4992322F4BDE2909581959F4F0C94CD
:1034A000521ABB27FB015527AA27880F991FAA1F6D
:1034B000A41710F0A41B83955051B9F7A05DAA334F
:1034C00008F0A95DA193009779F7B111B19311921A
:1034D000CB010C94A21CA9E0B0E0E1E7FAE10C9466
:1034E000E71D6A01F22EB02E102FFBE3AF2EA016BF
:1034F00008F41BE31F5F012F27E0AE014F5F5F4F12
:103500000E94CA1BBC018981982F9970913009F4DF
:103510003FC09BE2E1FC04C09E2D9170E0FC3AC0EC
:103520005E2D5071E82FE87083FF46C084E0911152
:1035300001C083E0EF2DE81B8F1508F0E0E0D60115
:103540008E2F20E2552351F1992329F0D6019C9327
:10355000C60101966C0196012D5F3F4FE2FE24C02B
:103560008EE4D6018C9391E411969C931197129658
:103570008C93D9018E2F90E281111BC0E20FF32FA3
:10358000F11D10828EEF9FEF2996ECE00C94031E44
:103590009DE2C6CF90E2C4CF2D9381508111FCCF24
:1035A000CE0ED11CE0E0D0CF8EE6D6018C9391E612
:1035B000DBCF9D938150E0CF482F447082FF3DC008
:1035C00084E0911101C083E08F1510F4EF2DE81B0A
:1035D000D6018E2F20E2552309F1992329F0D60137
:1035E0009C93C60101966C0196012D5F3F4FE2FE50
:1035F0001BC089E4D6018C938EE411968C931197AD
:1036000086E412968C93D9018E2F90E2882309F4D8
:10361000B5CF9D938150FACF2D9381508111FCCF6E
:10362000CE0ED11CE0E0D9CF89E6D6018C938EE690
:1036300011968C93119786E6E4CF9B0177FF02C029
:1036400030E020E0A1E0B0E0911102C0B0E0A0E0E5
:10365000F9013196AE0FBF1F8B2C912CBB2009F4C2
:1036600061C05401EFEFAE1ABE0AAA0DBB1DFA16D7
:103670001B0619F014F04F2D4A1B511188C0E3FCB2
:1036800059C07601A42FB0E2A1114FC0C40ED11CC5
:10369000992309F45BC040E0D6011196F6019083AE
:1036A0006D01552309F448C0012F060F9A81582F48
:1036B000507184FF03C0913309F4015010160CF0CF
:1036C00047C0093008F008E0EEE2FE2E5B01A01AC8
:1036D000B10885019194819491082F3F320729F414
:1036E000D601FC92F60131966F016217730794F1CF
:1036F000021713077CF5DB01A21BB30BAA24A394CA
:10370000B12CAC0EBD1EAA0DBB1D11968C91215083
:103710003109D601119628153905F4F0F601808398
:103720006D01DBCFB12CA12CA0CFF701B1937F01AC
:10373000A150AACF9111B0CFD601942F50E302C06F
:103740005D9391509111FCCFC40ED11C40E0ACCFE1
:1037500001E0BACF80E3DBCF6217730731F4963311
:1037600088F4953311F4552369F0F6018083FD0147
:10377000842F90E2811108C0A40FB11D1C9290E02B
:1037800080E002CF81E3F1CF91938150F3CF91118B
:1037900083CF8ACF283008F027E03327DA01990F4A
:1037A000311D87FD916000966105710539F4326025
:1037B0002E5F3D9330E32A95E1F708959F3F30F067
:1037C00080387105610509F03C5F3C5F3D939130A5
:1037D00008F08068911DDF93CF931F930F93FF92A2
:1037E000EF92192F987F9695E92F96959695E90F68
:1037F000FF27EC5BFE4F99273327EE24FF24A70118
:10380000E70105900894079428F4360FE71EF81E88
:10381000491F511D660F771F881F991F0694A1F736
:103820000590079428F4E70EF81E491F561FC11D86
:10383000770F881F991F661F0694A1F705900794BC
:1038400028F4F80E491F561FC71FD11D880F991F56
:10385000661F771F0694A1F70590079420F4490F7F
:10386000561FC71FD81F990F661F771F881F069402
:10387000A9F784911095177041F0D695C795579583
:103880004795F794E7941A95C1F7EAEEF0E068944B
:103890001590159135916591959105907FE27395FD
:1038A000E118F10A430B560BC90BD009C0F7E10C24
:1038B000F11E431F561FC91FD01D7EF4703311F433
:1038C0008A95E6CFE894015030F0080F0AF40027FB
:1038D000021708F4202F2395022F7A3328F079E37A
:1038E0007D932A95E9F710C07D932A9589F6069471
:1038F00097956795379517951794E118F10A430B3B
:10390000560BC90BD00998F023957E9173957A33A5
:1039100008F070E37C932013B8F77E9170617D937B
:1039200030F0839571E37D9370E32A95E1F71124DC
:10393000EF90FF900F911F91CF91DF91992787FD15
:1039400090950895DC01FC01672F71917723E1F7D1
:10395000329704C07C916D9370836291AE17BF075C
:10396000C8F308950E94F41C08F481E00895E894D7
:1039700009C097FB3EF490958095709561957F4FB7
:103980008F4F9F4F9923A9F0F92F96E9BB27939565
:10399000F695879577956795B795F111F8CFFAF475
:1039A000BB0F11F460FF1BC06F5F7F4F8F4F9F4FA6
:1039B00016C0882311F096E911C0772321F09EE804
:1039C000872F762F05C0662371F096E8862F70E06A
:1039D00060E02AF09A95660F771F881FDAF7880F44
:1039E0009695879597F90895990F0008550FAA0B9A
:1039F000E0E8FEEF16161706E807F907C0F0121602
:103A00001306E407F50798F0621B730B840B950B04
:103A100039F40A2661F0232B242B252B21F4089559
:103A20000A2609F4A140A6958FEF811D811D0895F6
:103A30000E942B1D0C949C1D0E948E1D38F00E942C
:103A4000951D20F0952311F00C94851D0C948B1D71
:103A500011240C94D01D0E94AD1D70F3959FC1F3ED
:103A6000950F50E0551F629FF001729FBB27F00D2C
:103A7000B11D639FAA27F00DB11DAA1F649F662781
:103A8000B00DA11D661F829F2227B00DA11D621FD0
:103A9000739FB00DA11D621F839FA00D611D221F8A
:103AA000749F3327A00D611D231F849F600D211D6E
:103AB000822F762F6A2F11249F5750409AF0F1F0F1
:103AC00088234AF0EE0FFF1FBB1F661F771F881F5A
:103AD00091505040A9F79E3F510580F00C94851DF0
:103AE0000C94D01D5F3FE4F3983ED4F38695779510
:103AF0006795B795F795E7959F5FC1F7FE2B880F00
:103B0000911D9695879597F9089597F99F6780E895
:103B100070E060E008959FEF80EC089500240A941F
:103B20001616170618060906089500240A94121698
:103B30001306140605060895092E0394000C11F4CB
:103B4000882352F0BB0F40F4BF2B11F460FF04C078
:103B50006F5F7F4F8F4F9F4F089557FD9058440FD1
:103B6000551F59F05F3F71F04795880F97FB991FDC
:103B700061F09F3F79F08795089512161306140699
:103B8000551FF2CF4695F1DF08C016161706180626
:103B9000991FF1CF86957105610508940895E89401
:103BA000BB2766277727CB0197F908950E94181E37
:103BB000A59F900DB49F900DA49F800D911D112481
:103BC00008952F923F924F925F926F927F928F92C1
:103BD0009F92AF92BF92CF92DF92EF92FF920F939C
:103BE0001F93CF93DF93CDB7DEB7CA1BDB0B0FB6A6
:103BF000F894DEBF0FBECDBF09942A883988488863
:103C00005F846E847D848C849B84AA84B984C884F8
:103C1000DF80EE80FD800C811B81AA81B981CE0FEF
:103C2000D11D0FB6F894DEBF0FBECDBFED010895D4
:103C3000A29FB001B39FC001A39F700D811D1124ED
:103C4000911DB29F700D811D1124911D0895505832
:103C5000BB27AA270E943F1E0C949C1D0E948E1D0C
:103C600038F00E94951D20F039F49F3F19F426F496
:103C70000C948B1D0EF4E095E7FB0C94851DE92F49
:103C80000E94AD1D58F3BA176207730784079507A2
:103C900020F079F4A6F50C94CF1D0EF4E0950B2ED0
:103CA000BA2FA02D0B01B90190010C01CA01A0018E
:103CB0001124FF27591B99F0593F50F4503E68F1E9
:103CC0001A16F040A22F232F342F4427585FF3CF2A
:103CD000469537952795A795F0405395C9F77EF4FB
:103CE0001F16BA0B620B730B840BBAF09150A1F044
:103CF000FF0FBB1F661F771F881FC2F70EC0BA0FCA
:103D0000621F731F841F48F4879577956795B79551
:103D1000F7959E3F08F0B0CF9395880F08F099274C
:103D2000EE0F9795879508950E94A81E0C949C1DF0
:103D30000E94951D58F00E948E1D40F029F45F3FAF
:103D400029F00C94851D51110C94D01D0C948B1DE1
:103D50000E94AD1D68F39923B1F3552391F3951B90
:103D6000550BBB27AA2762177307840738F09F5F9C
:103D70005F4F220F331F441FAA1FA9F335D00E2E09
:103D80003AF0E0E832D091505040E695001CCAF776
:103D90002BD0FE2F29D0660F771F881FBB1F261739
:103DA00037074807AB07B0E809F0BB0B802DBF0110
:103DB000FF2793585F4F3AF09E3F510578F00C94DF
:103DC000851D0C94D01D5F3FE4F3983ED4F3869597
:103DD00077956795B795F7959F5FC9F7880F911D00
:103DE0009695879597F90895E1E0660F771F881FEC
:103DF000BB1F621773078407BA0720F0621B730B9F
:103E0000840BBA0BEE1F88F7E09508950E94B51D4C
:103E100088F09F5798F0B92F9927B751B0F0E1F08B
:103E2000660F771F881F991F1AF0BA95C9F714C03B
:103E3000B13091F00E94CF1DB1E008950C94CF1DD8
:103E4000672F782F8827B85F39F0B93FCCF3869574
:103E500077956795B395D9F73EF4909580957095D1
:103E600061957F4F8F4F9F4F08950E94F41C08F477
:103E70008FEF0895FA01EE0FFF1F309621053105EF
:103E8000A1F16115710561F48038BFE39B0749F129
:103E900068949038810561F08038BFEF9B0741F04E
:103EA00099234AF5FF3FE1053105210519F1E89411
:103EB0000894E795D901AA2329F4AB2FBE2FF85F08
:103EC000D0F310C0FF5F70F4A695E0F7F73950F01B
:103ED00019F0FF3A38F49F779F930DD00F9007FCAD
:103EE0009058089546F00C948B1D60E070E080E8D7
:103EF0009FE308954FE79F775F934F933F932F93EF
:103F00000E943A202F913F914F915F910E94181D7E
:103F10000C94971F0E94F41C880B990B089529F4A8
:103F200016F00C94851D0C94CF1D0C948B1D0E94D3
:103F3000B51DA8F39638A0F707F80F92E8942BE385
:103F40003AEA48EB5FE70E942E1D0F920F920F9204
:103F50004DB75EB70F920E948220E8E6F0E00E9423
:103F6000C91F4F915F91EF91FF91E595EE1FFF1FE4
:103F700049F0FE57E0684427EE0F441FFA95E1F739
:103F80004195550B0E94FC1F0F9007FE0C94F01FEB
:103F90000895DF93CF931F930F93FF92EF92DF92D9
:103FA0007B018C01689406C0DA2EEF010E942B1D64
:103FB000FE01E894A5912591359145915591A6F37F
:103FC000EF010E943F1EFE019701A801DA9469F7F4
:103FD000DF90EF90FF900F911F91CF91DF910895A7
:103FE0009B01AC0160E070E080E89FE30C94941EBC
:103FF0000C94851D0C94B6200E94B51DD8F399230E
:10400000C9F3940F511DA3F39150504094F059F00F
:10401000882332F0660F771F881F91505040C1F7F8
:104020009E3F51052CF7880F911D9695879597F91E
:1040300008955F3FACF0983E9CF0BB27869577953E
:104040006795B79508F4B1609395C1F7BB0F58F722
:1040500011F460FFE8CF6F5F7F4F8F4F9F4FE3CF2B
:104060000C94D01D16F00C94B6200C948B1D689403
:104070000C94851D0E94B51DA8F39923C1F3AEF3DE
:10408000DF93CF931F930F93FF92C92FDD278823D0
:104090002AF02197660F771F881FDAF720E030E0BB
:1040A00040E85FEB9FE3883920F0803E38F02196AE
:1040B0008F770E94281EE0E9F0E004C00E94281ECD
:1040C000EDEBF0E00E94C91F8B01BE01EC01FB2E5D
:1040D0006F5771097595771F880B990B0E94B91C52
:1040E00028E132E741E35FE30E942B1DAF2D9801E9
:1040F000AE01FF900F911F91CF91DF910E943F1E63
:104100000C949C1DFA01DC01AA0FBB1F9B01AC01A2
:10411000BF5728F4222733274427507820C0B751AF
:1041200090F4AB2F0024469537952795011CA39555
:10413000D2F3002071F0220F331F441FB395DAF33E
:104140000ED00C94271E61307105A0E88A07B9468D
:1041500030F49B01AC01662777278827907830964A
:1041600021F0208331834283538308959F3F31F0B0
:10417000915020F4879577956795B795880F911D95
:104180009695879597F90895DB018F939F930E94E9
:10419000D61DBF91AF91A29F800D911DA39F900D41
:1041A000B29F900D11240895A1E21A2EAA1BBB1BE9
:1041B000FD010DC0AA1FBB1FEE1FFF1FA217B307F3
:1041C000E407F50720F0A21BB30BE40BF50B661F09
:1041D000771F881F991F1A9469F7609570958095CD
:1041E00090959B01AC01BD01CF010895052E97FB71
:1041F0001EF400940E940D2157FD07D00E94D42088
:1042000007FC03D04EF40C940D2150954095309549
:1042100021953F4F4F4F5F4F089590958095709532
:1042200061957F4F8F4F9F4F0895B7FF0C94D61D18
:104230000E94D61D821B930B0895EE0FFF1F059061
:10424000F491E02D09940F931F93CF93DF93823065
:10425000910510F482E090E0E0914B08F0914C0859
:1042600030E020E0B0E0A0E0309799F4211531056E
:1042700009F44AC0281B390B24303105D8F58A814E
:104280009B816115710589F1FB0193838283FE0196
:1042900011C0408151810281138148175907E0F014
:1042A0004817590799F4109761F012960C931297DA
:1042B00013961C933296CF01DF91CF911F910F91EE
:1042C000089500934B0810934C08F4CF2115310545
:1042D00051F04217530738F0A901DB019A01BD01E3
:1042E000DF01F801C1CFEF01F9CF90934C08809323
:1042F0004B08CDCFFE01E20FF31F81939193225023
:10430000310939832883D7CF2091490830914A0851
:10431000232B41F4209102013091030130934A088C
:1043200020934908209100013091010121153105A8
:1043300041F42DB73EB74091040150910501241B73
:10434000350BE0914908F0914A08E217F307A0F411
:104350002E1B3F0B2817390778F0AC014E5F5F4FDB
:104360002417350748F04E0F5F1F50934A084093BB
:104370004908819391939FCFF0E0E0E09CCFCF93E9
:10438000DF930097E9F0FC01329713821282A0912B
:104390004B08B0914C08ED0130E020E01097A1F4FB
:1043A00020813181820F931F2091490830914A0862
:1043B0002817390709F061C0F0934A08E0934908CB
:1043C000DF91CF910895EA01CE17DF07E8F54A8122
:1043D0005B819E0141155105B1F7E901FB83EA8339
:1043E00049915991C40FD51FEC17FD0761F48081E5
:1043F00091810296840F951FE901998388838281B8
:1044000093819B838A83F0E0E0E012968D919C91EA
:1044100013970097B9F52D913C911197CD01029614
:10442000820F931F2091490830914A0828173907B5
:1044300039F6309751F510924C0810924B08B09312
:104440004A08A0934908BCCFD383C28340815181DD
:10445000840F951FC817D90761F44E5F5F4F88819D
:104460009981480F591F518340838A819B8193838F
:1044700082832115310509F0B0CFF0934C08E09309
:104480004B089ECFFD01DC01C0CF13821282D7CF33
:10449000B0E0A0E0EEE4F2E20C94E31D8C010097A2
:1044A00051F4CB010E9423218C01C801CDB7DEB7A6
:1044B000E0E10C94FF1DFC01E60FF71F9C01225068
:1044C0003109E217F30708F49DC0D901CD91DC91C1
:1044D0001197C617D70798F0C530D10530F3CE0134
:1044E00004978617970708F3C61BD70B2297C1932B
:1044F000D1936D937C93CF010E94BF21D6CF5B01F6
:10450000AC1ABD0A4C018C0E9D1EA0914B08B091B7
:104510004C08512C412CF12CE12C109731F5809155
:10452000490890914A088815990509F05CC046161B
:10453000570608F058C08091000190910101009742
:1045400041F48DB79EB74091040150910501841B41
:10455000950BE817F90708F055C0F0934A08E09367
:104560004908F90171836083A0CF8D919C911197C7
:1045700012966C90129713967C901397A815B90514
:1045800059F56C0142E0C40ED11CCA14DB0420F1C1
:10459000AC014A195B09DA011296159780F0628224
:1045A000738251834083D9016D937C93E114F104AC
:1045B00071F0D7011396FC93EE93129776CF229663
:1045C0008C0F9D1FF90191838083F301EFCFF0934E
:1045D0004C08E0934B0869CF4816590608F42C01A3
:1045E0007D01D3019ACFCB010E9423217C0100974A
:1045F00049F0AE01B8010E940523C8010E94BF2105
:10460000870153CF10E000E050CFFB01DC0102C076
:1046100001900D9241505040D8F70895FB01DC0104
:104620008D91019080190110D9F3990B0895FB0128
:10463000DC0101900D920020E1F70895FB01DC01FF
:104640004150504048F001900D920020C9F701C040
:104650001D9241505040E0F70895AEE0B0E0E3E332
:10466000F3E20C94EF1D0D891E8986E08C831A837A
:1046700009838FEF9FE79E838D83AE01475E5F4F77
:104680006F89788DCE0101960E9450232F81388545
:10469000020F131FF80110822E96E4E00C940B1EFB
:1046A000ABE0B0E0E6E5F3E20C94E11D7C013B01F8
:1046B0008A01FC0117821682838181FFC8C1CE0165
:1046C00001965C01F7019381F30193FD859193FFBE
:1046D00081913F01882309F453C1853239F493FD58
:1046E000859193FF81913F01853229F4B70190E0D4
:1046F0000E944025E7CF912C212C312CFFE1F315AE
:1047000038F08B3211F190F4803209F1833229F1C3
:1047100037FC3CC020ED280F2A3050F536FE20C073
:104720008AE0989E200D1124922E06C08D3291F0C1
:10473000803371F7689430F8F30193FD859193FF0E
:1047400081913F018111DACF21C0689431F86894DA
:1047500032F8F2CF689433F8EFCF689434F8ECCFA6
:10476000EAE02E9E200D1124222E689435F8E4CF25
:104770008E3229F436FC04C1689436F8DDCF8C36CD
:1047800019F4689437F8D8CF8836B1F2982F9F7D06
:1047900095549330E0F08336A1F18337C1F183352E
:1047A00009F063C02801F2E04F0E511CF801C080EF
:1047B000D180692D70E036FC02C06FEF7FEFC6013B
:1047C0000E942A254C01689437F882010AC00C5FC8
:1047D0001F4FFFE3F98388248394912C6501E894AB
:1047E00037F833FE2DC0522C8114910471F55520F9
:1047F00009F468CFB70180E290E00E9440255A9406
:10480000F6CFF801808189830E5F1F4FE4CF280126
:10481000F2E04F0E511CF801C080D180692D70E08C
:1048200036FC02C06FEF7FEFC6010E9435254C01B8
:104830008201D5CFB70180E290E00E9440252A9402
:104840002814190409F0B0F7CECFF60137FC859192
:1048500037FE81916F01B70190E00E944025511011
:104860005A94F1E08F1A9108BFCF843619F0893637
:1048700009F077C0F80137FE6BC0608171818281D9
:1048800093810C5F1F4FF32DFF763F2E97FF09C0DA
:1048900090958095709561957F4F8F4F9F4F68944D
:1048A00037F82AE030E0A5010E947025C82ECA180A
:1048B0008C2C432C36FE0CC0E89440F8C91440F40C
:1048C00034FE05C032FC03C0F32DFE7E4F2E892C32
:1048D00044FE95C0FE01EC0DF11D8081803309F08E
:1048E00087C0242D297E422E842D8870582E43FCAB
:1048F00095C040FE8FC09C2C821418F42C0C922C76
:10490000981844FE91C0B70180E390E00E944025D2
:1049100042FE09C088E790E041FE02C088E590E0D1
:10492000B7010E944025C91408F48AC0CA94D12C4A
:104930009FEFC91AD90ACA0CDB1CF60182916F01DC
:10494000B70190E00E944025AC14BD04B1F74FCFF1
:1049500060817181072E000C880B990B0E5F1F4F31
:1049600092CFD32CE894D4F82AE030E0853739F19F
:10497000232D297FD22E8F3601F148F48835A9F0F6
:10498000F701868197812B96E2E10C94FD1D80371B
:1049900049F08837A9F7D4FE02C06894D2F820E124
:1049A00030E00DC06894D4F8F6CF34FE03C0822FF7
:1049B0008660D82E20E132E002C028E030E0F80125
:1049C000D7FE0FC060817181828193810C5F1F4F80
:1049D000A5010E947025C82ECA183D2CE89437F80E
:1049E00067CF6081718190E080E00E5F1F4FF0CF54
:1049F00042FC02C0839478CF8394839475CF842D36
:104A0000867809F471CFF6CFB70180E290E00E947A
:104A1000402583948214C0F3512C73CF522C581824
:104A2000821408F46ECFF8CF842D867809F47BCFFA
:104A30008BE241FE80E247FC8DE2B70190E071CF4E
:104A4000B70180E390E00E9440259A946CCF8FEFED
:104A50009FEF99CFFC010590615070400110D8F78D
:104A6000809590958E0F9F1F0895FC0161507040B6
:104A700001900110D8F7809590958E0F9F1F089593
:104A80000F931F93CF93DF93182F092FEB018B8187
:104A900081FD09C01FEF0FEF812F902FDF91CF9184
:104AA0001F910F91089582FF14C02E813F818C8148
:104AB0009D81281739073CF4E881F981CF010196DF
:104AC0009983888310838E819F8101969F838E8333
:104AD000E3CFE885F985812F0995892BA1F3DACFFA
:104AE000FA01AA27283051F1203181F1E8946F931F
:104AF0006E7F6E5F7F4F8F4F9F4FAF4FB1E03ED0C5
:104B0000B4E03CD0670F781F891F9A1FA11D680F62
:104B1000791F8A1F911DA11D6A0F711D811D911D95
:104B2000A11D20D009F468943F912AE0269F11240A
:104B30003019305D3193DEF6CF010895462F47706E
:104B4000405D4193B3E00FD0C9F7F6CF462F4F70C9
:104B5000405D4A3318F0495D31FD4052419302D027
:104B6000A9F7EACFB4E0A6959795879577956795CD
:104B7000BA95C9F700976105710508959B01AC01CD
:104B80000A2E06945795479537952795BA95C9F7F4
:104B9000620F731F841F951FA01D089511E0C0E2CE
:104BA000D1E004C0FE010E941D212196C132D1072F
:104BB000C9F7F894FFCF00004D08800000004000C6
:104BC00014005400040E0E1F1F1F1F0E040A0A0AB1
:104BD0000E1F1F0E1C141C000000000011111113E9
:104BE0001518101018041804180000000000000028
:104BF00021028901B6016502E701C601D901000061
:104C000000002C06FF058706D505F805E505D60545
:104C10000000000083098901870681010D0A006EEA
:104C2000616E00696E66006F766600436F6E6E653A
:104C300063742E2E2E00436F6E6E65637420537561
:104C400063636573730055706461746520537461A8
:104C50007475730052656365697665203A20005467
:104C600072616E736D697373696F6E2055706461E4
:104C7000746520537461747573203A205452005443
:104C800072616E736D697373696F6E2055706461C4
:104C9000746520537461747573203A204653004440
:104CA0006174612055706461746520436F6D706C30
:104CB0006574650044617461205472616E73666549
:104CC0007220436F6D706C657465642021004745E8
:104CD0005420545048204461746153697A650054EB
:104CE00072616E736D697373696F6E2053656E7355
:104CF0006F724461746153697A65203A20004745B8
:104D00005420545048005472616E736D6973736916
:104D10006F6E20545048203A200047455420555487
:104D200057204461746153697A65004745542055A2
:104D30005457005472616E736D697373696F6E209E
:104D4000555457203A20004745542044535420449A
:104D500061746153697A6500474554204453540097
:104D60005472616E736D697373696F6E204453542E
:104D7000203A200047455420474153204461746144
:104D800053697A6500474554204741530054726186
:104D90006E736D697373696F6E20474153203A20BB
:104DA0000047455420494C4D204461746153697A51
:104DB000650047455420494C4D005472616E736D37
:104DC000697373696F6E20494C4D203A2000474546
:104DD0005420505353204461746153697A650047ED
:104DE000455420505353005472616E736D69737350
:104DF000696F6E20505353203A20005374617274CF
:104E00002C2041726475696E6F21004C6F6164697A
:104E10006E672E2E2E00496E697469616C697A691D
:104E20006E67204932432E2E2E004C434420487595
:104E30006D6964697479203A200025202F2054651B
:104E40006D7065726174757265203A2000204300B0
:104E500048756D69203A2000250054656D70203A30
:104E600020004C43442000434D00232044697374C8
:104E7000616E63652023004C434420496C6C756D62
:104E8000696E203A20002A496C6C756D696E6174F8
:104E9000696F6E2A004C58004C43442067617328A8
:104EA00070706D29203A2000436172626F6E4D6F01
:104EB0006E6F786964650050504D004C4344204447
:104EC000757374203A200075672F6D5E33002A4D8C
:104ED0006963726F5F447573742A0075672F0042AF
:104EE0004D5031383020BCBEBCADB8A620C3A3C0E5
:104EF000BB20BCF620BEF8BDC0B4CFB4D92E20BFB5
:104F0000ACB0E1C0BB20C8AEC0CEC7D820C1D6BCB3
:104F1000BCBFE4210054656D70282E43293A20253A
:104F2000730950726573285041293A20257309414D
:104F30006C74284D293A20257300432000413A0023
:104F4000507265733A00504100416C6C2053656E9D
:104F5000736F7220446174612055706461746520C0
:104F6000436F6D706C6574652021003D3D3D3D3D96
:104F70003D3D3D3D3D3D3D3D3D3D3D3D3D3D3D3D61
:104F80003D3D3D3D3D3D3D3D3D3D3D3D3D3D3D3D51
:104F90003D3D3D3D3D3D3D3D3D3D3D3D3D3D3D3D41
:064FA0003D3D3D3D000017
:107E0000112484B714BE81FFF0D085E080938100F7
:107E100082E08093C00088E18093C10086E0809377
:107E2000C20080E18093C4008EE0C9D0259A86E02C
:107E300020E33CEF91E0309385002093840096BBD3
:107E4000B09BFECF1D9AA8958150A9F7CC24DD24C4
:107E500088248394B5E0AB2EA1E19A2EF3E0BF2EE7
:107E6000A2D0813461F49FD0082FAFD0023811F036
:107E7000013811F484E001C083E08DD089C08234E0
:107E800011F484E103C0853419F485E0A6D080C0E4
:107E9000853579F488D0E82EFF2485D0082F10E0AE
:107EA000102F00270E291F29000F111F8ED06801E7
:107EB0006FC0863521F484E090D080E0DECF843638
:107EC00009F040C070D06FD0082F6DD080E0C81688
:107ED00080E7D80618F4F601B7BEE895C0E0D1E017
:107EE00062D089930C17E1F7F0E0CF16F0E7DF06D8
:107EF00018F0F601B7BEE89568D007B600FCFDCFD4
:107F0000A601A0E0B1E02C9130E011968C91119780
:107F100090E0982F8827822B932B1296FA010C0160
:107F200087BEE89511244E5F5F4FF1E0A038BF0790
:107F300051F7F601A7BEE89507B600FCFDCF97BE46
:107F4000E89526C08437B1F42ED02DD0F82E2BD052
:107F50003CD0F601EF2C8F010F5F1F4F84911BD097
:107F6000EA94F801C1F70894C11CD11CFA94CF0C13
:107F7000D11C0EC0853739F428D08EE10CD085E9AC
:107F80000AD08FE07ACF813511F488E018D01DD067
:107F900080E101D065CF982F8091C00085FFFCCF94
:107FA0009093C60008958091C00087FFFCCF809118
:107FB000C00084FD01C0A8958091C6000895E0E648
:107FC000F0E098E1908380830895EDDF803219F02E
:107FD00088E0F5DFFFCF84E1DECF1F93182FE3DFCA
:107FE0001150E9F7F2DF1F91089580E0E8DFEE27F6
:047FF000FF270994CA
:027FFE00040479
:00000001FF
